{
  "contracts/DEX/periphery/libraries/FixedPoint.sol": {
    "FixedPoint": {
      "abi": [
        {
          "inputs": [],
          "name": "Q112",
          "outputs": [
            {
              "internalType": "uint256",
              "name": "",
              "type": "uint256"
            }
          ],
          "stateMutability": "view",
          "type": "function"
        },
        {
          "inputs": [],
          "name": "RESOLUTION",
          "outputs": [
            {
              "internalType": "uint8",
              "name": "",
              "type": "uint8"
            }
          ],
          "stateMutability": "view",
          "type": "function"
        }
      ],
      "evm": {
        "bytecode": {
          "linkReferences": {},
          "object": "60c4610025600b82828239805160001a60731461001857fe5b30600052607381538281f3fe7300000000000000000000000000000000000000003014608060405260043610603d5760003560e01c80633bf7a83e146042578063552f888a14605a575b600080fd5b60486076565b60408051918252519081900360200190f35b60606089565b6040805160ff9092168252519081900360200190f35b6e01000000000000000000000000000081565b60708156fea2646970667358221220fcd8d1fd17daa9a0fb0414dfd43126bb39540782621f088115cc8ff9c0b822f864736f6c63430006060033",
          "opcodes": "PUSH1 0xC4 PUSH2 0x25 PUSH1 0xB DUP3 DUP3 DUP3 CODECOPY DUP1 MLOAD PUSH1 0x0 BYTE PUSH1 0x73 EQ PUSH2 0x18 JUMPI INVALID JUMPDEST ADDRESS PUSH1 0x0 MSTORE PUSH1 0x73 DUP2 MSTORE8 DUP3 DUP2 RETURN INVALID PUSH20 0x0 ADDRESS EQ PUSH1 0x80 PUSH1 0x40 MSTORE PUSH1 0x4 CALLDATASIZE LT PUSH1 0x3D JUMPI PUSH1 0x0 CALLDATALOAD PUSH1 0xE0 SHR DUP1 PUSH4 0x3BF7A83E EQ PUSH1 0x42 JUMPI DUP1 PUSH4 0x552F888A EQ PUSH1 0x5A JUMPI JUMPDEST PUSH1 0x0 DUP1 REVERT JUMPDEST PUSH1 0x48 PUSH1 0x76 JUMP JUMPDEST PUSH1 0x40 DUP1 MLOAD SWAP2 DUP3 MSTORE MLOAD SWAP1 DUP2 SWAP1 SUB PUSH1 0x20 ADD SWAP1 RETURN JUMPDEST PUSH1 0x60 PUSH1 0x89 JUMP JUMPDEST PUSH1 0x40 DUP1 MLOAD PUSH1 0xFF SWAP1 SWAP3 AND DUP3 MSTORE MLOAD SWAP1 DUP2 SWAP1 SUB PUSH1 0x20 ADD SWAP1 RETURN JUMPDEST PUSH15 0x10000000000000000000000000000 DUP2 JUMP JUMPDEST PUSH1 0x70 DUP2 JUMP INVALID LOG2 PUSH5 0x6970667358 0x22 SLT KECCAK256 0xFC 0xD8 0xD1 REVERT OR 0xDA 0xA9 LOG0 0xFB DIV EQ 0xDF 0xD4 BALANCE 0x26 0xBB CODECOPY SLOAD SMOD DUP3 PUSH3 0x1F0881 ISZERO 0xCC DUP16 0xF9 0xC0 0xB8 0x22 0xF8 PUSH5 0x736F6C6343 STOP MOD MOD STOP CALLER "
        },
        "methodIdentifiers": {
          "Q112()": "3bf7a83e",
          "RESOLUTION()": "552f888a"
        }
      }
    }
  }
}