{
  "_format": "hh-sol-artifact-1",
  "contractName": "BLCRRouter02",
  "sourceName": "contracts/DEX/periphery/BLCRRouter02.sol",
  "abi": [
    {
      "inputs": [
        {
          "internalType": "address",
          "name": "_factory",
          "type": "address"
        },
        {
          "internalType": "address",
          "name": "_WETH",
          "type": "address"
        }
      ],
      "stateMutability": "nonpayable",
      "type": "constructor"
    },
    {
      "inputs": [],
      "name": "WETH",
      "outputs": [
        {
          "internalType": "address",
          "name": "",
          "type": "address"
        }
      ],
      "stateMutability": "view",
      "type": "function"
    },
    {
      "inputs": [
        {
          "internalType": "address",
          "name": "tokenA",
          "type": "address"
        },
        {
          "internalType": "address",
          "name": "tokenB",
          "type": "address"
        },
        {
          "internalType": "uint256",
          "name": "amountADesired",
          "type": "uint256"
        },
        {
          "internalType": "uint256",
          "name": "amountBDesired",
          "type": "uint256"
        },
        {
          "internalType": "uint256",
          "name": "amountAMin",
          "type": "uint256"
        },
        {
          "internalType": "uint256",
          "name": "amountBMin",
          "type": "uint256"
        },
        {
          "internalType": "address",
          "name": "to",
          "type": "address"
        },
        {
          "internalType": "uint256",
          "name": "deadline",
          "type": "uint256"
        }
      ],
      "name": "addLiquidity",
      "outputs": [
        {
          "internalType": "uint256",
          "name": "amountA",
          "type": "uint256"
        },
        {
          "internalType": "uint256",
          "name": "amountB",
          "type": "uint256"
        },
        {
          "internalType": "uint256",
          "name": "liquidity",
          "type": "uint256"
        }
      ],
      "stateMutability": "nonpayable",
      "type": "function"
    },
    {
      "inputs": [
        {
          "internalType": "address",
          "name": "token",
          "type": "address"
        },
        {
          "internalType": "uint256",
          "name": "amountTokenDesired",
          "type": "uint256"
        },
        {
          "internalType": "uint256",
          "name": "amountTokenMin",
          "type": "uint256"
        },
        {
          "internalType": "uint256",
          "name": "amountETHMin",
          "type": "uint256"
        },
        {
          "internalType": "address",
          "name": "to",
          "type": "address"
        },
        {
          "internalType": "uint256",
          "name": "deadline",
          "type": "uint256"
        }
      ],
      "name": "addLiquidityETH",
      "outputs": [
        {
          "internalType": "uint256",
          "name": "amountToken",
          "type": "uint256"
        },
        {
          "internalType": "uint256",
          "name": "amountETH",
          "type": "uint256"
        },
        {
          "internalType": "uint256",
          "name": "liquidity",
          "type": "uint256"
        }
      ],
      "stateMutability": "payable",
      "type": "function"
    },
    {
      "inputs": [],
      "name": "factory",
      "outputs": [
        {
          "internalType": "address",
          "name": "",
          "type": "address"
        }
      ],
      "stateMutability": "view",
      "type": "function"
    },
    {
      "inputs": [
        {
          "internalType": "uint256",
          "name": "amountOut",
          "type": "uint256"
        },
        {
          "internalType": "uint256",
          "name": "reserveIn",
          "type": "uint256"
        },
        {
          "internalType": "uint256",
          "name": "reserveOut",
          "type": "uint256"
        },
        {
          "internalType": "uint256",
          "name": "feeSwap",
          "type": "uint256"
        }
      ],
      "name": "getAmountIn",
      "outputs": [
        {
          "internalType": "uint256",
          "name": "amountIn",
          "type": "uint256"
        }
      ],
      "stateMutability": "pure",
      "type": "function"
    },
    {
      "inputs": [
        {
          "internalType": "uint256",
          "name": "amountIn",
          "type": "uint256"
        },
        {
          "internalType": "uint256",
          "name": "reserveIn",
          "type": "uint256"
        },
        {
          "internalType": "uint256",
          "name": "reserveOut",
          "type": "uint256"
        },
        {
          "internalType": "uint256",
          "name": "feeSwap",
          "type": "uint256"
        }
      ],
      "name": "getAmountOut",
      "outputs": [
        {
          "internalType": "uint256",
          "name": "amountOut",
          "type": "uint256"
        }
      ],
      "stateMutability": "pure",
      "type": "function"
    },
    {
      "inputs": [
        {
          "internalType": "uint256",
          "name": "amountOut",
          "type": "uint256"
        },
        {
          "internalType": "address[]",
          "name": "path",
          "type": "address[]"
        }
      ],
      "name": "getAmountsIn",
      "outputs": [
        {
          "internalType": "uint256[]",
          "name": "amounts",
          "type": "uint256[]"
        }
      ],
      "stateMutability": "view",
      "type": "function"
    },
    {
      "inputs": [
        {
          "internalType": "uint256",
          "name": "amountIn",
          "type": "uint256"
        },
        {
          "internalType": "address[]",
          "name": "path",
          "type": "address[]"
        }
      ],
      "name": "getAmountsOut",
      "outputs": [
        {
          "internalType": "uint256[]",
          "name": "amounts",
          "type": "uint256[]"
        }
      ],
      "stateMutability": "view",
      "type": "function"
    },
    {
      "inputs": [
        {
          "internalType": "address",
          "name": "_user",
          "type": "address"
        }
      ],
      "name": "getUsersNonce",
      "outputs": [
        {
          "internalType": "uint256",
          "name": "",
          "type": "uint256"
        }
      ],
      "stateMutability": "view",
      "type": "function"
    },
    {
      "inputs": [],
      "name": "openAddLiquidity",
      "outputs": [
        {
          "internalType": "bool",
          "name": "",
          "type": "bool"
        }
      ],
      "stateMutability": "view",
      "type": "function"
    },
    {
      "inputs": [],
      "name": "openSwap",
      "outputs": [
        {
          "internalType": "bool",
          "name": "",
          "type": "bool"
        }
      ],
      "stateMutability": "view",
      "type": "function"
    },
    {
      "inputs": [
        {
          "internalType": "uint256",
          "name": "amountA",
          "type": "uint256"
        },
        {
          "internalType": "uint256",
          "name": "reserveA",
          "type": "uint256"
        },
        {
          "internalType": "uint256",
          "name": "reserveB",
          "type": "uint256"
        }
      ],
      "name": "quote",
      "outputs": [
        {
          "internalType": "uint256",
          "name": "amountB",
          "type": "uint256"
        }
      ],
      "stateMutability": "pure",
      "type": "function"
    },
    {
      "inputs": [
        {
          "internalType": "address",
          "name": "tokenA",
          "type": "address"
        },
        {
          "internalType": "address",
          "name": "tokenB",
          "type": "address"
        },
        {
          "internalType": "uint256",
          "name": "liquidity",
          "type": "uint256"
        },
        {
          "internalType": "uint256",
          "name": "amountAMin",
          "type": "uint256"
        },
        {
          "internalType": "uint256",
          "name": "amountBMin",
          "type": "uint256"
        },
        {
          "internalType": "address",
          "name": "to",
          "type": "address"
        },
        {
          "internalType": "uint256",
          "name": "deadline",
          "type": "uint256"
        }
      ],
      "name": "removeLiquidity",
      "outputs": [
        {
          "internalType": "uint256",
          "name": "amountA",
          "type": "uint256"
        },
        {
          "internalType": "uint256",
          "name": "amountB",
          "type": "uint256"
        }
      ],
      "stateMutability": "nonpayable",
      "type": "function"
    },
    {
      "inputs": [
        {
          "internalType": "address",
          "name": "token",
          "type": "address"
        },
        {
          "internalType": "uint256",
          "name": "liquidity",
          "type": "uint256"
        },
        {
          "internalType": "uint256",
          "name": "amountTokenMin",
          "type": "uint256"
        },
        {
          "internalType": "uint256",
          "name": "amountETHMin",
          "type": "uint256"
        },
        {
          "internalType": "address",
          "name": "to",
          "type": "address"
        },
        {
          "internalType": "uint256",
          "name": "deadline",
          "type": "uint256"
        }
      ],
      "name": "removeLiquidityETH",
      "outputs": [
        {
          "internalType": "uint256",
          "name": "amountToken",
          "type": "uint256"
        },
        {
          "internalType": "uint256",
          "name": "amountETH",
          "type": "uint256"
        }
      ],
      "stateMutability": "nonpayable",
      "type": "function"
    },
    {
      "inputs": [
        {
          "internalType": "address",
          "name": "token",
          "type": "address"
        },
        {
          "internalType": "uint256",
          "name": "liquidity",
          "type": "uint256"
        },
        {
          "internalType": "uint256",
          "name": "amountTokenMin",
          "type": "uint256"
        },
        {
          "internalType": "uint256",
          "name": "amountETHMin",
          "type": "uint256"
        },
        {
          "internalType": "address",
          "name": "to",
          "type": "address"
        },
        {
          "internalType": "uint256",
          "name": "deadline",
          "type": "uint256"
        }
      ],
      "name": "removeLiquidityETHSupportingFeeOnTransferTokens",
      "outputs": [
        {
          "internalType": "uint256",
          "name": "amountETH",
          "type": "uint256"
        }
      ],
      "stateMutability": "nonpayable",
      "type": "function"
    },
    {
      "inputs": [
        {
          "internalType": "address",
          "name": "token",
          "type": "address"
        },
        {
          "internalType": "uint256",
          "name": "liquidity",
          "type": "uint256"
        },
        {
          "internalType": "uint256",
          "name": "amountTokenMin",
          "type": "uint256"
        },
        {
          "internalType": "uint256",
          "name": "amountETHMin",
          "type": "uint256"
        },
        {
          "internalType": "address",
          "name": "to",
          "type": "address"
        },
        {
          "internalType": "uint256",
          "name": "deadline",
          "type": "uint256"
        },
        {
          "internalType": "bool",
          "name": "approveMax",
          "type": "bool"
        },
        {
          "internalType": "uint8",
          "name": "v",
          "type": "uint8"
        },
        {
          "internalType": "bytes32",
          "name": "r",
          "type": "bytes32"
        },
        {
          "internalType": "bytes32",
          "name": "s",
          "type": "bytes32"
        }
      ],
      "name": "removeLiquidityETHWithPermit",
      "outputs": [
        {
          "internalType": "uint256",
          "name": "amountToken",
          "type": "uint256"
        },
        {
          "internalType": "uint256",
          "name": "amountETH",
          "type": "uint256"
        }
      ],
      "stateMutability": "nonpayable",
      "type": "function"
    },
    {
      "inputs": [
        {
          "internalType": "address",
          "name": "token",
          "type": "address"
        },
        {
          "internalType": "uint256",
          "name": "liquidity",
          "type": "uint256"
        },
        {
          "internalType": "uint256",
          "name": "amountTokenMin",
          "type": "uint256"
        },
        {
          "internalType": "uint256",
          "name": "amountETHMin",
          "type": "uint256"
        },
        {
          "internalType": "address",
          "name": "to",
          "type": "address"
        },
        {
          "internalType": "uint256",
          "name": "deadline",
          "type": "uint256"
        },
        {
          "internalType": "bool",
          "name": "approveMax",
          "type": "bool"
        },
        {
          "internalType": "uint8",
          "name": "v",
          "type": "uint8"
        },
        {
          "internalType": "bytes32",
          "name": "r",
          "type": "bytes32"
        },
        {
          "internalType": "bytes32",
          "name": "s",
          "type": "bytes32"
        }
      ],
      "name": "removeLiquidityETHWithPermitSupportingFeeOnTransferTokens",
      "outputs": [
        {
          "internalType": "uint256",
          "name": "amountETH",
          "type": "uint256"
        }
      ],
      "stateMutability": "nonpayable",
      "type": "function"
    },
    {
      "inputs": [
        {
          "internalType": "address",
          "name": "tokenA",
          "type": "address"
        },
        {
          "internalType": "address",
          "name": "tokenB",
          "type": "address"
        },
        {
          "internalType": "uint256",
          "name": "liquidity",
          "type": "uint256"
        },
        {
          "internalType": "uint256",
          "name": "amountAMin",
          "type": "uint256"
        },
        {
          "internalType": "uint256",
          "name": "amountBMin",
          "type": "uint256"
        },
        {
          "internalType": "address",
          "name": "to",
          "type": "address"
        },
        {
          "internalType": "uint256",
          "name": "deadline",
          "type": "uint256"
        },
        {
          "internalType": "bool",
          "name": "approveMax",
          "type": "bool"
        },
        {
          "internalType": "uint8",
          "name": "v",
          "type": "uint8"
        },
        {
          "internalType": "bytes32",
          "name": "r",
          "type": "bytes32"
        },
        {
          "internalType": "bytes32",
          "name": "s",
          "type": "bytes32"
        }
      ],
      "name": "removeLiquidityWithPermit",
      "outputs": [
        {
          "internalType": "uint256",
          "name": "amountA",
          "type": "uint256"
        },
        {
          "internalType": "uint256",
          "name": "amountB",
          "type": "uint256"
        }
      ],
      "stateMutability": "nonpayable",
      "type": "function"
    },
    {
      "inputs": [
        {
          "internalType": "address",
          "name": "_newAdmin",
          "type": "address"
        }
      ],
      "name": "setNewAdmin",
      "outputs": [],
      "stateMutability": "nonpayable",
      "type": "function"
    },
    {
      "inputs": [
        {
          "internalType": "address",
          "name": "_signer",
          "type": "address"
        }
      ],
      "name": "setNewSigner",
      "outputs": [],
      "stateMutability": "nonpayable",
      "type": "function"
    },
    {
      "inputs": [
        {
          "internalType": "bool",
          "name": "_status",
          "type": "bool"
        }
      ],
      "name": "setOpenAddLiquidity",
      "outputs": [],
      "stateMutability": "nonpayable",
      "type": "function"
    },
    {
      "inputs": [
        {
          "internalType": "bool",
          "name": "_status",
          "type": "bool"
        }
      ],
      "name": "setOpenSwap",
      "outputs": [],
      "stateMutability": "nonpayable",
      "type": "function"
    },
    {
      "inputs": [
        {
          "internalType": "uint256",
          "name": "amountOut",
          "type": "uint256"
        },
        {
          "internalType": "address[]",
          "name": "path",
          "type": "address[]"
        },
        {
          "internalType": "address",
          "name": "to",
          "type": "address"
        },
        {
          "internalType": "uint256",
          "name": "deadline",
          "type": "uint256"
        },
        {
          "internalType": "bytes",
          "name": "encodeData",
          "type": "bytes"
        }
      ],
      "name": "swapETHForExactTokens",
      "outputs": [
        {
          "internalType": "uint256[]",
          "name": "amounts",
          "type": "uint256[]"
        }
      ],
      "stateMutability": "payable",
      "type": "function"
    },
    {
      "inputs": [
        {
          "internalType": "uint256",
          "name": "amountOutMin",
          "type": "uint256"
        },
        {
          "internalType": "address[]",
          "name": "path",
          "type": "address[]"
        },
        {
          "internalType": "address",
          "name": "to",
          "type": "address"
        },
        {
          "internalType": "uint256",
          "name": "deadline",
          "type": "uint256"
        },
        {
          "internalType": "bytes",
          "name": "encodeData",
          "type": "bytes"
        }
      ],
      "name": "swapExactETHForTokens",
      "outputs": [
        {
          "internalType": "uint256[]",
          "name": "amounts",
          "type": "uint256[]"
        }
      ],
      "stateMutability": "payable",
      "type": "function"
    },
    {
      "inputs": [
        {
          "internalType": "uint256",
          "name": "amountOutMin",
          "type": "uint256"
        },
        {
          "internalType": "address[]",
          "name": "path",
          "type": "address[]"
        },
        {
          "internalType": "address",
          "name": "to",
          "type": "address"
        },
        {
          "internalType": "uint256",
          "name": "deadline",
          "type": "uint256"
        },
        {
          "internalType": "bytes",
          "name": "encodeData",
          "type": "bytes"
        }
      ],
      "name": "swapExactETHForTokensSupportingFeeOnTransferTokens",
      "outputs": [],
      "stateMutability": "payable",
      "type": "function"
    },
    {
      "inputs": [
        {
          "internalType": "uint256",
          "name": "amountIn",
          "type": "uint256"
        },
        {
          "internalType": "uint256",
          "name": "amountOutMin",
          "type": "uint256"
        },
        {
          "internalType": "address[]",
          "name": "path",
          "type": "address[]"
        },
        {
          "internalType": "address",
          "name": "to",
          "type": "address"
        },
        {
          "internalType": "uint256",
          "name": "deadline",
          "type": "uint256"
        },
        {
          "internalType": "bytes",
          "name": "encodeData",
          "type": "bytes"
        }
      ],
      "name": "swapExactTokensForETH",
      "outputs": [
        {
          "internalType": "uint256[]",
          "name": "amounts",
          "type": "uint256[]"
        }
      ],
      "stateMutability": "nonpayable",
      "type": "function"
    },
    {
      "inputs": [
        {
          "internalType": "uint256",
          "name": "amountIn",
          "type": "uint256"
        },
        {
          "internalType": "uint256",
          "name": "amountOutMin",
          "type": "uint256"
        },
        {
          "internalType": "address[]",
          "name": "path",
          "type": "address[]"
        },
        {
          "internalType": "address",
          "name": "to",
          "type": "address"
        },
        {
          "internalType": "uint256",
          "name": "deadline",
          "type": "uint256"
        },
        {
          "internalType": "bytes",
          "name": "encodeData",
          "type": "bytes"
        }
      ],
      "name": "swapExactTokensForETHSupportingFeeOnTransferTokens",
      "outputs": [],
      "stateMutability": "nonpayable",
      "type": "function"
    },
    {
      "inputs": [
        {
          "internalType": "uint256",
          "name": "amountIn",
          "type": "uint256"
        },
        {
          "internalType": "uint256",
          "name": "amountOutMin",
          "type": "uint256"
        },
        {
          "internalType": "address[]",
          "name": "path",
          "type": "address[]"
        },
        {
          "internalType": "address",
          "name": "to",
          "type": "address"
        },
        {
          "internalType": "uint256",
          "name": "deadline",
          "type": "uint256"
        },
        {
          "internalType": "bytes",
          "name": "encodeData",
          "type": "bytes"
        }
      ],
      "name": "swapExactTokensForTokens",
      "outputs": [
        {
          "internalType": "uint256[]",
          "name": "amounts",
          "type": "uint256[]"
        }
      ],
      "stateMutability": "nonpayable",
      "type": "function"
    },
    {
      "inputs": [
        {
          "internalType": "uint256",
          "name": "amountIn",
          "type": "uint256"
        },
        {
          "internalType": "uint256",
          "name": "amountOutMin",
          "type": "uint256"
        },
        {
          "internalType": "address[]",
          "name": "path",
          "type": "address[]"
        },
        {
          "internalType": "address",
          "name": "to",
          "type": "address"
        },
        {
          "internalType": "uint256",
          "name": "deadline",
          "type": "uint256"
        },
        {
          "internalType": "bytes",
          "name": "encodeData",
          "type": "bytes"
        }
      ],
      "name": "swapExactTokensForTokensSupportingFeeOnTransferTokens",
      "outputs": [],
      "stateMutability": "nonpayable",
      "type": "function"
    },
    {
      "inputs": [
        {
          "internalType": "uint256",
          "name": "amountOut",
          "type": "uint256"
        },
        {
          "internalType": "uint256",
          "name": "amountInMax",
          "type": "uint256"
        },
        {
          "internalType": "address[]",
          "name": "path",
          "type": "address[]"
        },
        {
          "internalType": "address",
          "name": "to",
          "type": "address"
        },
        {
          "internalType": "uint256",
          "name": "deadline",
          "type": "uint256"
        },
        {
          "internalType": "bytes",
          "name": "encodeData",
          "type": "bytes"
        }
      ],
      "name": "swapTokensForExactETH",
      "outputs": [
        {
          "internalType": "uint256[]",
          "name": "amounts",
          "type": "uint256[]"
        }
      ],
      "stateMutability": "nonpayable",
      "type": "function"
    },
    {
      "inputs": [
        {
          "internalType": "uint256",
          "name": "amountOut",
          "type": "uint256"
        },
        {
          "internalType": "uint256",
          "name": "amountInMax",
          "type": "uint256"
        },
        {
          "internalType": "address[]",
          "name": "path",
          "type": "address[]"
        },
        {
          "internalType": "address",
          "name": "to",
          "type": "address"
        },
        {
          "internalType": "uint256",
          "name": "deadline",
          "type": "uint256"
        },
        {
          "internalType": "bytes",
          "name": "encodeData",
          "type": "bytes"
        }
      ],
      "name": "swapTokensForExactTokens",
      "outputs": [
        {
          "internalType": "uint256[]",
          "name": "amounts",
          "type": "uint256[]"
        }
      ],
      "stateMutability": "nonpayable",
      "type": "function"
    },
    {
      "stateMutability": "payable",
      "type": "receive"
    }
  ],
  "bytecode": "0x60c06040523480156200001157600080fd5b5060405162005dd538038062005dd5833981810160405260408110156200003757600080fd5b5080516020909101516001600160601b0319606092831b8116608052911b1660a052600280546001600160a01b03199081163390811790925560018054909116909117905560805160601c60a05160601c615c2b620001aa600039806101ec528061124e528061128952806115c0528061166752806116db5280611cd7528061233f52806124e1528061261f52806126ac528061275b52806129005280612d325280612f26528061307b52806131035280613523528061362f52806136e5528061387752806139cf5280613a575280613cdf5280613d355280613d695280613ddd5250806113aa52806113e3528061170d5280611aea5280611bbe5280611cb55280611eda528061209c52806123df52806129a05280612aa65280612cb75280612ce05280612d105280612fcb52806131355280613355528061391c5280613a895280613d13528061470452806148f45280614cbb5280614cf152806153df52806154a652806155265250615c2b6000f3fe6080604052600436106101dc5760003560e01c80638af1393711610102578063d06ca61f11610095578063ed16c0b411610064578063ed16c0b414610f2d578063ed3b11ce14611019578063ee323dbc146110f3578063f305d7191461111f57610215565b8063d06ca61f14610cab578063ded9382a14610d60578063e76c597514610dd3578063e8e3370014610ead57610215565b8063af2979eb116100d1578063af2979eb14610afa578063b132b5e114610b4d578063baa2abde14610c39578063c45a015514610c9657610215565b80638af13937146109745780638eec99c814610a60578063ad5c464814610a93578063ad615dec14610ac457610215565b8063323de4ee1161017a5780635b0d5984116101495780635b0d5984146107145780635d14aa42146107875780635e1d693e1461079c5780637a253b581461088857610215565b8063323de4ee1461056b57806335483a061461065757806352707d8c1461069c578063571fd012146106d857610215565b80631f00ca74116101b65780631f00ca74146102e55780632195995c146103ea578063274b96a5146104685780632b5e3aa51461054257610215565b8063023e13211461021a57806302751cec146102465780630f9c5d9e146102b257610215565b3661021557336001600160a01b037f0000000000000000000000000000000000000000000000000000000000000000161461021357fe5b005b600080fd5b34801561022657600080fd5b506102136004803603602081101561023d57600080fd5b50351515611165565b34801561025257600080fd5b50610299600480360360c081101561026957600080fd5b506001600160a01b0381358116916020810135916040820135916060810135916080820135169060a001356111f7565b6040805192835260208301919091528051918290030190f35b3480156102be57600080fd5b50610213600480360360208110156102d557600080fd5b50356001600160a01b031661131b565b3480156102f157600080fd5b5061039a6004803603604081101561030857600080fd5b81359190810190604081016020820135600160201b81111561032957600080fd5b82018360208201111561033b57600080fd5b803590602001918460208302840111600160201b8311171561035c57600080fd5b9190808060200260200160405190810160405280939291908181526020018383602002808284376000920191909152509295506113a3945050505050565b60408051602080825283518183015283519192839290830191858101910280838360005b838110156103d65781810151838201526020016103be565b505050509050019250505060405180910390f35b3480156103f657600080fd5b50610299600480360361016081101561040e57600080fd5b506001600160a01b038135811691602081013582169160408201359160608101359160808201359160a08101359091169060c08101359060e081013515159060ff61010082013516906101208101359061014001356113d9565b610213600480360360a081101561047e57600080fd5b81359190810190604081016020820135600160201b81111561049f57600080fd5b8201836020820111156104b157600080fd5b803590602001918460208302840111600160201b831117156104d257600080fd5b919390926001600160a01b03833516926020810135929190606081019060400135600160201b81111561050457600080fd5b82018360208201111561051657600080fd5b803590602001918460018302840111600160201b8311171561053757600080fd5b5090925090506114d3565b34801561054e57600080fd5b506105576119cb565b604080519115158252519081900360200190f35b34801561057757600080fd5b5061039a600480360360c081101561058e57600080fd5b813591602081013591810190606081016040820135600160201b8111156105b457600080fd5b8201836020820111156105c657600080fd5b803590602001918460208302840111600160201b831117156105e757600080fd5b919390926001600160a01b03833516926020810135929190606081019060400135600160201b81111561061957600080fd5b82018360208201111561062b57600080fd5b803590602001918460018302840111600160201b8311171561064c57600080fd5b5090925090506119db565b34801561066357600080fd5b5061068a6004803603602081101561067a57600080fd5b50356001600160a01b0316611c6d565b60408051918252519081900360200190f35b3480156106a857600080fd5b5061068a600480360360808110156106bf57600080fd5b5080359060208101359060408101359060600135611c88565b3480156106e457600080fd5b5061068a600480360360808110156106fb57600080fd5b5080359060208101359060408101359060600135611c9f565b34801561072057600080fd5b5061068a600480360361014081101561073857600080fd5b506001600160a01b0381358116916020810135916040820135916060810135916080820135169060a08101359060c081013515159060ff60e08201351690610100810135906101200135611cad565b34801561079357600080fd5b50610557611dbb565b3480156107a857600080fd5b5061039a600480360360c08110156107bf57600080fd5b813591602081013591810190606081016040820135600160201b8111156107e557600080fd5b8201836020820111156107f757600080fd5b803590602001918460208302840111600160201b8311171561081857600080fd5b919390926001600160a01b03833516926020810135929190606081019060400135600160201b81111561084a57600080fd5b82018360208201111561085c57600080fd5b803590602001918460018302840111600160201b8311171561087d57600080fd5b509092509050611dcb565b34801561089457600080fd5b50610213600480360360c08110156108ab57600080fd5b813591602081013591810190606081016040820135600160201b8111156108d157600080fd5b8201836020820111156108e357600080fd5b803590602001918460208302840111600160201b8311171561090457600080fd5b919390926001600160a01b03833516926020810135929190606081019060400135600160201b81111561093657600080fd5b82018360208201111561094857600080fd5b803590602001918460018302840111600160201b8311171561096957600080fd5b509092509050611f8b565b34801561098057600080fd5b5061039a600480360360c081101561099757600080fd5b813591602081013591810190606081016040820135600160201b8111156109bd57600080fd5b8201836020820111156109cf57600080fd5b803590602001918460208302840111600160201b831117156109f057600080fd5b919390926001600160a01b03833516926020810135929190606081019060400135600160201b811115610a2257600080fd5b820183602082011115610a3457600080fd5b803590602001918460018302840111600160201b83111715610a5557600080fd5b50909250905061222b565b348015610a6c57600080fd5b5061021360048036036020811015610a8357600080fd5b50356001600160a01b0316612595565b348015610a9f57600080fd5b50610aa861261d565b604080516001600160a01b039092168252519081900360200190f35b348015610ad057600080fd5b5061068a60048036036060811015610ae757600080fd5b5080359060208101359060400135612641565b348015610b0657600080fd5b5061068a600480360360c0811015610b1d57600080fd5b506001600160a01b0381358116916020810135916040820135916060810135916080820135169060a00135612656565b348015610b5957600080fd5b5061039a600480360360c0811015610b7057600080fd5b813591602081013591810190606081016040820135600160201b811115610b9657600080fd5b820183602082011115610ba857600080fd5b803590602001918460208302840111600160201b83111715610bc957600080fd5b919390926001600160a01b03833516926020810135929190606081019060400135600160201b811115610bfb57600080fd5b820183602082011115610c0d57600080fd5b803590602001918460018302840111600160201b83111715610c2e57600080fd5b5090925090506127ec565b348015610c4557600080fd5b50610299600480360360e0811015610c5c57600080fd5b506001600160a01b038135811691602081013582169160408201359160608101359160808201359160a08101359091169060c00135612a4e565b348015610ca257600080fd5b50610aa8612cb5565b348015610cb757600080fd5b5061039a60048036036040811015610cce57600080fd5b81359190810190604081016020820135600160201b811115610cef57600080fd5b820183602082011115610d0157600080fd5b803590602001918460208302840111600160201b83111715610d2257600080fd5b919080806020026020016040519081016040528093929190818152602001838360200280828437600092019190915250929550612cd9945050505050565b348015610d6c57600080fd5b506102996004803603610140811015610d8457600080fd5b506001600160a01b0381358116916020810135916040820135916060810135916080820135169060a08101359060c081013515159060ff60e08201351690610100810135906101200135612d06565b61039a600480360360a0811015610de957600080fd5b81359190810190604081016020820135600160201b811115610e0a57600080fd5b820183602082011115610e1c57600080fd5b803590602001918460208302840111600160201b83111715610e3d57600080fd5b919390926001600160a01b03833516926020810135929190606081019060400135600160201b811115610e6f57600080fd5b820183602082011115610e8157600080fd5b803590602001918460018302840111600160201b83111715610ea257600080fd5b509092509050612e1a565b348015610eb957600080fd5b50610f0f6004803603610100811015610ed157600080fd5b506001600160a01b038135811691602081013582169160408201359160608101359160808201359160a08101359160c0820135169060e0013561327e565b60408051938452602084019290925282820152519081900360600190f35b348015610f3957600080fd5b50610213600480360360c0811015610f5057600080fd5b813591602081013591810190606081016040820135600160201b811115610f7657600080fd5b820183602082011115610f8857600080fd5b803590602001918460208302840111600160201b83111715610fa957600080fd5b919390926001600160a01b03833516926020810135929190606081019060400135600160201b811115610fdb57600080fd5b820183602082011115610fed57600080fd5b803590602001918460018302840111600160201b8311171561100e57600080fd5b50909250905061342e565b61039a600480360360a081101561102f57600080fd5b81359190810190604081016020820135600160201b81111561105057600080fd5b82018360208201111561106257600080fd5b803590602001918460208302840111600160201b8311171561108357600080fd5b919390926001600160a01b03833516926020810135929190606081019060400135600160201b8111156110b557600080fd5b8201836020820111156110c757600080fd5b803590602001918460018302840111600160201b831117156110e857600080fd5b50909250905061376b565b3480156110ff57600080fd5b506102136004803603602081101561111657600080fd5b50351515613b8a565b610f0f600480360360c081101561113557600080fd5b506001600160a01b0381358116916020810135916040820135916060810135916080820135169060a00135613c1c565b6001546001600160a01b031633146111be576040805162461bcd60e51b8152602060048201526017602482015276212621a92937baba32b918191d102327a92124a22222a760491b604482015290519081900360640190fd5b60028054911515600160a01b027fffffffffffffffffffffff00ffffffffffffffffffffffffffffffffffffffff909216919091179055565b6000808242811015611248576040805162461bcd60e51b8152602060048201526015602482015274109310d4949bdd5d195c8c0c8e8811561412549151605a1b604482015290519081900360640190fd5b611277897f00000000000000000000000000000000000000000000000000000000000000008a8a8a308a612a4e565b9093509150611287898685613f35565b7f00000000000000000000000000000000000000000000000000000000000000006001600160a01b0316632e1a7d4d836040518263ffffffff1660e01b815260040180828152602001915050600060405180830381600087803b1580156112ed57600080fd5b505af1158015611301573d6000803e3d6000fd5b5050505061130f85836140b7565b50965096945050505050565b6001546001600160a01b03163314611374576040805162461bcd60e51b8152602060048201526017602482015276212621a92937baba32b918191d102327a92124a22222a760491b604482015290519081900360640190fd5b6002805473ffffffffffffffffffffffffffffffffffffffff19166001600160a01b0392909216919091179055565b60606113d07f000000000000000000000000000000000000000000000000000000000000000084846141af565b90505b92915050565b60008060006114097f00000000000000000000000000000000000000000000000000000000000000008f8f61439d565b9050600087611418578c61141c565b6000195b6040805163d505accf60e01b815233600482015230602482015260448101839052606481018c905260ff8a16608482015260a4810189905260c4810188905290519192506001600160a01b0384169163d505accf9160e48082019260009290919082900301818387803b15801561149257600080fd5b505af11580156114a6573d6000803e3d6000fd5b505050506114b98f8f8f8f8f8f8f612a4e565b809450819550505050509b509b9950505050505050505050565b8242811015611521576040805162461bcd60e51b8152602060048201526015602482015274109310d4949bdd5d195c8c0c8e8811561412549151605a1b604482015290519081900360640190fd5b600254600160a01b900460ff166115be576115be6040518060600160405280603281526020016159ed603291393489898080602002602001604051908101604052809392919081815260200183836020028082843760009201919091525050604080516020601f8b018190048102820181019092528981528c93509150899089908190840183828082843760009201919091525061442492505050565b7f00000000000000000000000000000000000000000000000000000000000000006001600160a01b0316878760008181106115f557fe5b905060200201356001600160a01b03166001600160a01b031614611660576040805162461bcd60e51b815260206004820152601a60248201527f424c4352526f7574657230323a20494e56414c49445f50415448000000000000604482015290519081900360640190fd5b60003490507f00000000000000000000000000000000000000000000000000000000000000006001600160a01b031663d0e30db0826040518263ffffffff1660e01b81526004016000604051808303818588803b1580156116c057600080fd5b505af11580156116d4573d6000803e3d6000fd5b50505050507f00000000000000000000000000000000000000000000000000000000000000006001600160a01b031663a9059cbb61176b7f00000000000000000000000000000000000000000000000000000000000000008b8b600081811061173957fe5b905060200201356001600160a01b03168c8c600181811061175657fe5b905060200201356001600160a01b031661439d565b836040518363ffffffff1660e01b815260040180836001600160a01b03166001600160a01b0316815260200182815260200192505050602060405180830381600087803b1580156117bb57600080fd5b505af11580156117cf573d6000803e3d6000fd5b505050506040513d60208110156117e557600080fd5b50516117ed57fe5b6000888860001981018181106117ff57fe5b905060200201356001600160a01b03166001600160a01b03166370a08231886040518263ffffffff1660e01b815260040180826001600160a01b03166001600160a01b0316815260200191505060206040518083038186803b15801561186457600080fd5b505afa158015611878573d6000803e3d6000fd5b505050506040513d602081101561188e57600080fd5b50516040805160208b810282810182019093528b82529293506118d09290918c918c9182918501908490808284376000920191909152508b92506146ad915050565b89611982828b8b60001981018181106118e557fe5b905060200201356001600160a01b03166001600160a01b03166370a082318b6040518263ffffffff1660e01b815260040180826001600160a01b03166001600160a01b0316815260200191505060206040518083038186803b15801561194a57600080fd5b505afa15801561195e573d6000803e3d6000fd5b505050506040513d602081101561197457600080fd5b50519063ffffffff614a4216565b10156119bf5760405162461bcd60e51b8152600401808060200182810382526028815260200180615aff6028913960400191505060405180910390fd5b50505050505050505050565b600254600160a81b900460ff1681565b60608342811015611a2b576040805162461bcd60e51b8152602060048201526015602482015274109310d4949bdd5d195c8c0c8e8811561412549151605a1b604482015290519081900360640190fd5b600254600160a01b900460ff16611ae557611ae56040518060400160405280601881526020017f73776170546f6b656e73466f724578616374546f6b656e7300000000000000008152508b8a8a8080602002602001604051908101604052809392919081815260200183836020028082843760009201919091525050604080516020601f8c018190048102820181019092528a81528d935091508a908a908190840183828082843760009201919091525061442492505050565b611b437f00000000000000000000000000000000000000000000000000000000000000008b8a8a808060200260200160405190810160405280939291908181526020018383602002808284376000920191909152506141af92505050565b91508882600081518110611b5357fe5b60200260200101511115611b985760405162461bcd60e51b81526004018080602001828103825260248152602001806159c96024913960400191505060405180910390fd5b611c2188886000818110611ba857fe5b905060200201356001600160a01b031633611c077f00000000000000000000000000000000000000000000000000000000000000008c8c6000818110611bea57fe5b905060200201356001600160a01b03168d8d600181811061175657fe5b85600081518110611c1457fe5b6020026020010151614a9a565b611c60828989808060200260200160405190810160405280939291908181526020018383602002808284376000920191909152508b9250614c0c915050565b5098975050505050505050565b6001600160a01b031660009081526020819052604090205490565b6000611c9685858585614e45565b95945050505050565b6000611c9685858585614f39565b600080611cfb7f00000000000000000000000000000000000000000000000000000000000000008d7f000000000000000000000000000000000000000000000000000000000000000061439d565b9050600086611d0a578b611d0e565b6000195b6040805163d505accf60e01b815233600482015230602482015260448101839052606481018b905260ff8916608482015260a4810188905260c4810187905290519192506001600160a01b0384169163d505accf9160e48082019260009290919082900301818387803b158015611d8457600080fd5b505af1158015611d98573d6000803e3d6000fd5b50505050611daa8d8d8d8d8d8d612656565b9d9c50505050505050505050505050565b600254600160a01b900460ff1681565b60608342811015611e1b576040805162461bcd60e51b8152602060048201526015602482015274109310d4949bdd5d195c8c0c8e8811561412549151605a1b604482015290519081900360640190fd5b600254600160a01b900460ff16611ed557611ed56040518060400160405280601881526020017f737761704578616374546f6b656e73466f72546f6b656e7300000000000000008152508b8a8a8080602002602001604051908101604052809392919081815260200183836020028082843760009201919091525050604080516020601f8c018190048102820181019092528a81528d935091508a908a908190840183828082843760009201919091525061442492505050565b611f337f00000000000000000000000000000000000000000000000000000000000000008b8a8a8080602002602001604051908101604052809392919081815260200183836020028082843760009201919091525061502d92505050565b91508882600184510381518110611f4657fe5b60200260200101511015611b985760405162461bcd60e51b8152600401808060200182810382526028815260200180615aff6028913960400191505060405180910390fd5b8242811015611fd9576040805162461bcd60e51b8152602060048201526015602482015274109310d4949bdd5d195c8c0c8e8811561412549151605a1b604482015290519081900360640190fd5b600254600160a01b900460ff1661207657612076604051806060016040528060358152602001615aca603591398a89898080602002602001604051908101604052809392919081815260200183836020028082843760009201919091525050604080516020601f8b018190048102820181019092528981528c93509150899089908190840183828082843760009201919091525061442492505050565b6120ce8787600081811061208657fe5b905060200201356001600160a01b0316336120c87f00000000000000000000000000000000000000000000000000000000000000008b8b600081811061173957fe5b8c614a9a565b6000878760001981018181106120e057fe5b905060200201356001600160a01b03166001600160a01b03166370a08231876040518263ffffffff1660e01b815260040180826001600160a01b03166001600160a01b0316815260200191505060206040518083038186803b15801561214557600080fd5b505afa158015612159573d6000803e3d6000fd5b505050506040513d602081101561216f57600080fd5b50516040805160208a810282810182019093528a82529293506121b19290918b918b9182918501908490808284376000920191909152508a92506146ad915050565b88611982828a8a60001981018181106121c657fe5b905060200201356001600160a01b03166001600160a01b03166370a082318a6040518263ffffffff1660e01b815260040180826001600160a01b03166001600160a01b0316815260200191505060206040518083038186803b15801561194a57600080fd5b6060834281101561227b576040805162461bcd60e51b8152602060048201526015602482015274109310d4949bdd5d195c8c0c8e8811561412549151605a1b604482015290519081900360640190fd5b600254600160a01b900460ff16612335576123356040518060400160405280601581526020017f737761704578616374546f6b656e73466f7245544800000000000000000000008152508b8a8a8080602002602001604051908101604052809392919081815260200183836020028082843760009201919091525050604080516020601f8c018190048102820181019092528a81528d935091508a908a908190840183828082843760009201919091525061442492505050565b6001600160a01b037f0000000000000000000000000000000000000000000000000000000000000000168888600019810181811061236f57fe5b905060200201356001600160a01b03166001600160a01b0316146123da576040805162461bcd60e51b815260206004820152601a60248201527f424c4352526f7574657230323a20494e56414c49445f50415448000000000000604482015290519081900360640190fd5b6124387f00000000000000000000000000000000000000000000000000000000000000008b8a8a8080602002602001604051908101604052809392919081815260200183836020028082843760009201919091525061502d92505050565b9150888260018451038151811061244b57fe5b602002602001015110156124905760405162461bcd60e51b8152600401808060200182810382526028815260200180615aff6028913960400191505060405180910390fd5b6124a088886000818110611ba857fe5b6124df82898980806020026020016040519081016040528093929190818152602001838360200280828437600092019190915250309250614c0c915050565b7f00000000000000000000000000000000000000000000000000000000000000006001600160a01b0316632e1a7d4d8360018551038151811061251e57fe5b60200260200101516040518263ffffffff1660e01b815260040180828152602001915050600060405180830381600087803b15801561255c57600080fd5b505af1158015612570573d6000803e3d6000fd5b50505050611c60868360018551038151811061258857fe5b60200260200101516140b7565b6001546001600160a01b031633146125ee576040805162461bcd60e51b8152602060048201526017602482015276212621a92937baba32b918191d102327a92124a22222a760491b604482015290519081900360640190fd5b6001805473ffffffffffffffffffffffffffffffffffffffff19166001600160a01b0392909216919091179055565b7f000000000000000000000000000000000000000000000000000000000000000081565b600061264e8484846151f8565b949350505050565b600081428110156126a6576040805162461bcd60e51b8152602060048201526015602482015274109310d4949bdd5d195c8c0c8e8811561412549151605a1b604482015290519081900360640190fd5b6126d5887f00000000000000000000000000000000000000000000000000000000000000008989893089612a4e565b604080516370a0823160e01b8152306004820152905191945061275992508a9187916001600160a01b038416916370a0823191602480820192602092909190829003018186803b15801561272857600080fd5b505afa15801561273c573d6000803e3d6000fd5b505050506040513d602081101561275257600080fd5b5051613f35565b7f00000000000000000000000000000000000000000000000000000000000000006001600160a01b0316632e1a7d4d836040518263ffffffff1660e01b815260040180828152602001915050600060405180830381600087803b1580156127bf57600080fd5b505af11580156127d3573d6000803e3d6000fd5b505050506127e184836140b7565b509695505050505050565b6060834281101561283c576040805162461bcd60e51b8152602060048201526015602482015274109310d4949bdd5d195c8c0c8e8811561412549151605a1b604482015290519081900360640190fd5b600254600160a01b900460ff166128f6576128f66040518060400160405280601581526020017f73776170546f6b656e73466f72457861637445544800000000000000000000008152508b8a8a8080602002602001604051908101604052809392919081815260200183836020028082843760009201919091525050604080516020601f8c018190048102820181019092528a81528d935091508a908a908190840183828082843760009201919091525061442492505050565b6001600160a01b037f0000000000000000000000000000000000000000000000000000000000000000168888600019810181811061293057fe5b905060200201356001600160a01b03166001600160a01b03161461299b576040805162461bcd60e51b815260206004820152601a60248201527f424c4352526f7574657230323a20494e56414c49445f50415448000000000000604482015290519081900360640190fd5b6129f97f00000000000000000000000000000000000000000000000000000000000000008b8a8a808060200260200160405190810160405280939291908181526020018383602002808284376000920191909152506141af92505050565b91508882600081518110612a0957fe5b602002602001015111156124905760405162461bcd60e51b81526004018080602001828103825260248152602001806159c96024913960400191505060405180910390fd5b6000808242811015612a9f576040805162461bcd60e51b8152602060048201526015602482015274109310d4949bdd5d195c8c0c8e8811561412549151605a1b604482015290519081900360640190fd5b6000612acc7f00000000000000000000000000000000000000000000000000000000000000008c8c61439d565b604080516323b872dd60e01b81523360048201526001600160a01b03831660248201819052604482018d9052915192935090916323b872dd916064808201926020929091908290030181600087803b158015612b2757600080fd5b505af1158015612b3b573d6000803e3d6000fd5b505050506040513d6020811015612b5157600080fd5b5050604080517f89afcb440000000000000000000000000000000000000000000000000000000081526001600160a01b03888116600483015282516000938493928616926389afcb44926024808301939282900301818787803b158015612bb757600080fd5b505af1158015612bcb573d6000803e3d6000fd5b505050506040513d6040811015612be157600080fd5b50805160209091015190925090506000612bfb8e8e6152ba565b509050806001600160a01b03168e6001600160a01b031614612c1e578183612c21565b82825b90975095508a871015612c655760405162461bcd60e51b8152600401808060200182810382526023815260200180615bd36023913960400191505060405180910390fd5b89861015612ca45760405162461bcd60e51b8152600401808060200182810382526023815260200180615a1f6023913960400191505060405180910390fd5b505050505097509795505050505050565b7f000000000000000000000000000000000000000000000000000000000000000081565b60606113d07f0000000000000000000000000000000000000000000000000000000000000000848461502d565b6000806000612d567f00000000000000000000000000000000000000000000000000000000000000008e7f000000000000000000000000000000000000000000000000000000000000000061439d565b9050600087612d65578c612d69565b6000195b6040805163d505accf60e01b815233600482015230602482015260448101839052606481018c905260ff8a16608482015260a4810189905260c4810188905290519192506001600160a01b0384169163d505accf9160e48082019260009290919082900301818387803b158015612ddf57600080fd5b505af1158015612df3573d6000803e3d6000fd5b50505050612e058e8e8e8e8e8e6111f7565b909f909e509c50505050505050505050505050565b60608342811015612e6a576040805162461bcd60e51b8152602060048201526015602482015274109310d4949bdd5d195c8c0c8e8811561412549151605a1b604482015290519081900360640190fd5b600254600160a01b900460ff16612f2457612f246040518060400160405280601581526020017f73776170455448466f724578616374546f6b656e7300000000000000000000008152508a8a8a8080602002602001604051908101604052809392919081815260200183836020028082843760009201919091525050604080516020601f8c018190048102820181019092528a81528d935091508a908a908190840183828082843760009201919091525061442492505050565b7f00000000000000000000000000000000000000000000000000000000000000006001600160a01b031688886000818110612f5b57fe5b905060200201356001600160a01b03166001600160a01b031614612fc6576040805162461bcd60e51b815260206004820152601a60248201527f424c4352526f7574657230323a20494e56414c49445f50415448000000000000604482015290519081900360640190fd5b6130247f00000000000000000000000000000000000000000000000000000000000000008a8a8a808060200260200160405190810160405280939291908181526020018383602002808284376000920191909152506141af92505050565b9150348260008151811061303457fe5b602002602001015111156130795760405162461bcd60e51b81526004018080602001828103825260248152602001806159c96024913960400191505060405180910390fd5b7f00000000000000000000000000000000000000000000000000000000000000006001600160a01b031663d0e30db0836000815181106130b557fe5b60200260200101516040518263ffffffff1660e01b81526004016000604051808303818588803b1580156130e857600080fd5b505af11580156130fc573d6000803e3d6000fd5b50505050507f00000000000000000000000000000000000000000000000000000000000000006001600160a01b031663a9059cbb6131617f00000000000000000000000000000000000000000000000000000000000000008b8b600081811061173957fe5b8460008151811061316e57fe5b60200260200101516040518363ffffffff1660e01b815260040180836001600160a01b03166001600160a01b0316815260200182815260200192505050602060405180830381600087803b1580156131c557600080fd5b505af11580156131d9573d6000803e3d6000fd5b505050506040513d60208110156131ef57600080fd5b50516131f757fe5b613236828989808060200260200160405190810160405280939291908181526020018383602002808284376000920191909152508b9250614c0c915050565b8160008151811061324357fe5b602002602001015134111561327257613272338360008151811061326357fe5b602002602001015134036140b7565b50979650505050505050565b600080600083428110156132d1576040805162461bcd60e51b8152602060048201526015602482015274109310d4949bdd5d195c8c0c8e8811561412549151605a1b604482015290519081900360640190fd5b600254600160a81b900460ff1661333b576001546001600160a01b0316331461333b576040805162461bcd60e51b8152602060048201526017602482015276212621a92937baba32b918191d102327a92124a22222a760491b604482015290519081900360640190fd5b6133498c8c8c8c8c8c6153ae565b9094509250600061337b7f00000000000000000000000000000000000000000000000000000000000000008e8e61439d565b90506133898d338388614a9a565b6133958c338387614a9a565b806001600160a01b0316636a627842886040518263ffffffff1660e01b815260040180826001600160a01b03166001600160a01b03168152602001915050602060405180830381600087803b1580156133ed57600080fd5b505af1158015613401573d6000803e3d6000fd5b505050506040513d602081101561341757600080fd5b5051949d939c50939a509198505050505050505050565b824281101561347c576040805162461bcd60e51b8152602060048201526015602482015274109310d4949bdd5d195c8c0c8e8811561412549151605a1b604482015290519081900360640190fd5b600254600160a01b900460ff1661351957613519604051806060016040528060328152602001615b7b603291398a89898080602002602001604051908101604052809392919081815260200183836020028082843760009201919091525050604080516020601f8b018190048102820181019092528981528c93509150899089908190840183828082843760009201919091525061442492505050565b6001600160a01b037f0000000000000000000000000000000000000000000000000000000000000000168787600019810181811061355357fe5b905060200201356001600160a01b03166001600160a01b0316146135be576040805162461bcd60e51b815260206004820152601a60248201527f424c4352526f7574657230323a20494e56414c49445f50415448000000000000604482015290519081900360640190fd5b6135ce8787600081811061208657fe5b61360c8787808060200260200160405190810160405280939291908181526020018383602002808284376000920191909152503092506146ad915050565b604080516370a0823160e01b815230600482015290516000916001600160a01b037f000000000000000000000000000000000000000000000000000000000000000016916370a0823191602480820192602092909190829003018186803b15801561367657600080fd5b505afa15801561368a573d6000803e3d6000fd5b505050506040513d60208110156136a057600080fd5b50519050888110156136e35760405162461bcd60e51b8152600401808060200182810382526028815260200180615aff6028913960400191505060405180910390fd5b7f00000000000000000000000000000000000000000000000000000000000000006001600160a01b0316632e1a7d4d826040518263ffffffff1660e01b815260040180828152602001915050600060405180830381600087803b15801561374957600080fd5b505af115801561375d573d6000803e3d6000fd5b505050506119bf86826140b7565b606083428110156137bb576040805162461bcd60e51b8152602060048201526015602482015274109310d4949bdd5d195c8c0c8e8811561412549151605a1b604482015290519081900360640190fd5b600254600160a01b900460ff16613875576138756040518060400160405280601581526020017f737761704578616374455448466f72546f6b656e730000000000000000000000815250348a8a8080602002602001604051908101604052809392919081815260200183836020028082843760009201919091525050604080516020601f8c018190048102820181019092528a81528d935091508a908a908190840183828082843760009201919091525061442492505050565b7f00000000000000000000000000000000000000000000000000000000000000006001600160a01b0316888860008181106138ac57fe5b905060200201356001600160a01b03166001600160a01b031614613917576040805162461bcd60e51b815260206004820152601a60248201527f424c4352526f7574657230323a20494e56414c49445f50415448000000000000604482015290519081900360640190fd5b6139757f0000000000000000000000000000000000000000000000000000000000000000348a8a8080602002602001604051908101604052809392919081815260200183836020028082843760009201919091525061502d92505050565b9150888260018451038151811061398857fe5b602002602001015110156139cd5760405162461bcd60e51b8152600401808060200182810382526028815260200180615aff6028913960400191505060405180910390fd5b7f00000000000000000000000000000000000000000000000000000000000000006001600160a01b031663d0e30db083600081518110613a0957fe5b60200260200101516040518263ffffffff1660e01b81526004016000604051808303818588803b158015613a3c57600080fd5b505af1158015613a50573d6000803e3d6000fd5b50505050507f00000000000000000000000000000000000000000000000000000000000000006001600160a01b031663a9059cbb613ab57f00000000000000000000000000000000000000000000000000000000000000008b8b600081811061173957fe5b84600081518110613ac257fe5b60200260200101516040518363ffffffff1660e01b815260040180836001600160a01b03166001600160a01b0316815260200182815260200192505050602060405180830381600087803b158015613b1957600080fd5b505af1158015613b2d573d6000803e3d6000fd5b505050506040513d6020811015613b4357600080fd5b5051613b4b57fe5b613272828989808060200260200160405190810160405280939291908181526020018383602002808284376000920191909152508b9250614c0c915050565b6001546001600160a01b03163314613be3576040805162461bcd60e51b8152602060048201526017602482015276212621a92937baba32b918191d102327a92124a22222a760491b604482015290519081900360640190fd5b60028054911515600160a81b027fffffffffffffffffffff00ffffffffffffffffffffffffffffffffffffffffff909216919091179055565b60008060008342811015613c6f576040805162461bcd60e51b8152602060048201526015602482015274109310d4949bdd5d195c8c0c8e8811561412549151605a1b604482015290519081900360640190fd5b600254600160a81b900460ff16613cd9576001546001600160a01b03163314613cd9576040805162461bcd60e51b8152602060048201526017602482015276212621a92937baba32b918191d102327a92124a22222a760491b604482015290519081900360640190fd5b613d078a7f00000000000000000000000000000000000000000000000000000000000000008b348c8c6153ae565b90945092506000613d597f00000000000000000000000000000000000000000000000000000000000000008c7f000000000000000000000000000000000000000000000000000000000000000061439d565b9050613d678b338388614a9a565b7f00000000000000000000000000000000000000000000000000000000000000006001600160a01b031663d0e30db0856040518263ffffffff1660e01b81526004016000604051808303818588803b158015613dc257600080fd5b505af1158015613dd6573d6000803e3d6000fd5b50505050507f00000000000000000000000000000000000000000000000000000000000000006001600160a01b031663a9059cbb82866040518363ffffffff1660e01b815260040180836001600160a01b03166001600160a01b0316815260200182815260200192505050602060405180830381600087803b158015613e5b57600080fd5b505af1158015613e6f573d6000803e3d6000fd5b505050506040513d6020811015613e8557600080fd5b5051613e8d57fe5b806001600160a01b0316636a627842886040518263ffffffff1660e01b815260040180826001600160a01b03166001600160a01b03168152602001915050602060405180830381600087803b158015613ee557600080fd5b505af1158015613ef9573d6000803e3d6000fd5b505050506040513d6020811015613f0f57600080fd5b5051925034841015613f2757613f27338534036140b7565b505096509650969350505050565b604080516001600160a01b038481166024830152604480830185905283518084039091018152606490920183526020820180517bffffffffffffffffffffffffffffffffffffffffffffffffffffffff167fa9059cbb00000000000000000000000000000000000000000000000000000000178152925182516000946060949389169392918291908083835b60208310613fe05780518252601f199092019160209182019101613fc1565b6001836020036101000a0380198251168184511680821785525050505050509050019150506000604051808303816000865af19150503d8060008114614042576040519150601f19603f3d011682016040523d82523d6000602084013e614047565b606091505b5091509150818015614075575080511580614075575080806020019051602081101561407257600080fd5b50515b6140b05760405162461bcd60e51b815260040180806020018281038252602d815260200180615b4e602d913960400191505060405180910390fd5b5050505050565b604080516000808252602082019092526001600160a01b0384169083906040518082805190602001908083835b602083106141035780518252601f1990920191602091820191016140e4565b6001836020036101000a03801982511681845116808217855250505050505090500191505060006040518083038185875af1925050503d8060008114614165576040519150601f19603f3d011682016040523d82523d6000602084013e61416a565b606091505b50509050806141aa5760405162461bcd60e51b8152600401808060200182810382526034815260200180615a966034913960400191505060405180910390fd5b505050565b6060600282511015614208576040805162461bcd60e51b815260206004820152601960248201527f424c43524c6962726172793a20494e56414c49445f5041544800000000000000604482015290519081900360640190fd5b815167ffffffffffffffff8111801561422057600080fd5b5060405190808252806020026020018201604052801561424a578160200160208202803683370190505b509050828160018351038151811061425e57fe5b60209081029190910101528151600019015b8015614395576000806142ad8786600186038151811061428c57fe5b60200260200101518786815181106142a057fe5b602002602001015161563b565b9150915060006142e7888760018703815181106142c657fe5b60200260200101518887815181106142da57fe5b602002602001015161439d565b6001600160a01b03166241c9f76040518163ffffffff1660e01b815260040160206040518083038186803b15801561431e57600080fd5b505afa158015614332573d6000803e3d6000fd5b505050506040513d602081101561434857600080fd5b5051855190915061436f9086908690811061435f57fe5b6020026020010151848484614f39565b85600186038151811061437e57fe5b602090810291909101015250505060001901614270565b509392505050565b6040805163e6a4390560e01b81526001600160a01b0384811660048301528381166024830152915160009286169163e6a43905916044808301926020929190829003018186803b1580156143f057600080fd5b505afa158015614404573d6000803e3d6000fd5b505050506040513d602081101561441a57600080fd5b5051949350505050565b600080606083806020019051606081101561443e57600080fd5b81516020830151604080850180519151939592948301929184600160201b82111561446857600080fd5b90830190602082018581111561447d57600080fd5b8251600160201b81118282018810171561449657600080fd5b82525081516020918201929091019080838360005b838110156144c35781810151838201526020016144ab565b50505050905090810190601f1680156144f05780820380516001836020036101000a031916815260200191505b5060405250505092509250925081600080336001600160a01b03166001600160a01b031681526020019081526020016000205410614575576040805162461bcd60e51b815260206004820152601b60248201527f424c4352526f7574657230323a20496e76616c6964206e6f6e63650000000000604482015290519081900360640190fd5b438310156145ca576040805162461bcd60e51b815260206004820152601f60248201527f424c4352526f7574657230323a2045787069726564207369676e617475726500604482015290519081900360640190fd5b6000469050600061460d828b8b8b6000815181106145e457fe5b60200260200101518c60018e5103815181106145fc57fe5b6020026020010151338d8c8c615709565b9050600061461a826157e1565b905060006146288286615832565b6002549091506001600160a01b0380831691161461468d576040805162461bcd60e51b815260206004820152601f60248201527f424c4352526f7574657230323a20496e76616c6964207369676e617475726500604482015290519081900360640190fd5b505033600090815260208190526040902093909355505050505050505050565b60005b60018351038110156141aa576000808483815181106146cb57fe5b60200260200101518584600101815181106146e257fe5b60200260200101519150915060006146fa83836152ba565b509050600061472a7f0000000000000000000000000000000000000000000000000000000000000000858561439d565b9050600080600080846001600160a01b0316630902f1ac6040518163ffffffff1660e01b815260040160606040518083038186803b15801561476b57600080fd5b505afa15801561477f573d6000803e3d6000fd5b505050506040513d606081101561479557600080fd5b5080516020909101516dffffffffffffffffffffffffffff91821693501690506000806001600160a01b038a8116908916146147d25782846147d5565b83835b91509150614833828b6001600160a01b03166370a082318a6040518263ffffffff1660e01b815260040180826001600160a01b03166001600160a01b0316815260200191505060206040518083038186803b15801561194a57600080fd5b95506000876001600160a01b03166241c9f76040518163ffffffff1660e01b815260040160206040518083038186803b15801561486f57600080fd5b505afa158015614883573d6000803e3d6000fd5b505050506040513d602081101561489957600080fd5b505190506148a987848484614e45565b95505050505050600080856001600160a01b0316886001600160a01b0316146148d4578260006148d8565b6000835b91509150600060028c51038a106148ef578a614923565b6149237f0000000000000000000000000000000000000000000000000000000000000000898e8d600201815181106142da57fe5b60408051600080825260208201928390527f022c0d9f00000000000000000000000000000000000000000000000000000000835260248201878152604483018790526001600160a01b038086166064850152608060848501908152845160a48601819052969750908c169563022c0d9f958a958a958a9591949193919260c486019290918190849084905b838110156149c65781810151838201526020016149ae565b50505050905090810190601f1680156149f35780820380516001836020036101000a031916815260200191505b5095505050505050600060405180830381600087803b158015614a1557600080fd5b505af1158015614a29573d6000803e3d6000fd5b50506001909b019a506146b09950505050505050505050565b808203828111156113d3576040805162461bcd60e51b815260206004820152601560248201527f64732d6d6174682d7375622d756e646572666c6f770000000000000000000000604482015290519081900360640190fd5b604080516001600160a01b0385811660248301528481166044830152606480830185905283518084039091018152608490920183526020820180517bffffffffffffffffffffffffffffffffffffffffffffffffffffffff166323b872dd60e01b17815292518251600094606094938a169392918291908083835b60208310614b345780518252601f199092019160209182019101614b15565b6001836020036101000a0380198251168184511680821785525050505050509050019150506000604051808303816000865af19150503d8060008114614b96576040519150601f19603f3d011682016040523d82523d6000602084013e614b9b565b606091505b5091509150818015614bc9575080511580614bc95750808060200190516020811015614bc657600080fd5b50515b614c045760405162461bcd60e51b8152600401808060200182810382526031815260200180615a656031913960400191505060405180910390fd5b505050505050565b60005b6001835103811015614e3f57600080848381518110614c2a57fe5b6020026020010151858460010181518110614c4157fe5b6020026020010151915091506000614c5983836152ba565b5090506000878560010181518110614c6d57fe5b60200260200101519050600080836001600160a01b0316866001600160a01b031614614c9b57826000614c9f565b6000835b91509150600060028a51038810614cb65788614cea565b614cea7f0000000000000000000000000000000000000000000000000000000000000000878c8b600201815181106142da57fe5b9050614d177f0000000000000000000000000000000000000000000000000000000000000000888861439d565b6001600160a01b031663022c0d9f84848460006040519080825280601f01601f191660200182016040528015614d54576020820181803683370190505b506040518563ffffffff1660e01b815260040180858152602001848152602001836001600160a01b03166001600160a01b0316815260200180602001828103825283818151815260200191508051906020019080838360005b83811015614dc5578181015183820152602001614dad565b50505050905090810190601f168015614df25780820380516001836020036101000a031916815260200191505b5095505050505050600060405180830381600087803b158015614e1457600080fd5b505af1158015614e28573d6000803e3d6000fd5b505060019099019850614c0f975050505050505050565b50505050565b6000808511614e855760405162461bcd60e51b8152600401808060200182810382526026815260200180615bad6026913960400191505060405180910390fd5b600084118015614e955750600083115b614ed05760405162461bcd60e51b8152600401808060200182810382526023815260200180615a426023913960400191505060405180910390fd5b6000614ee7866103e885900363ffffffff61590416565b90506000614efb828663ffffffff61590416565b90506000614f2183614f15896103e863ffffffff61590416565b9063ffffffff61597016565b9050808281614f2c57fe5b0498975050505050505050565b6000808511614f795760405162461bcd60e51b8152600401808060200182810382526027815260200180615b276027913960400191505060405180910390fd5b600084118015614f895750600083115b614fc45760405162461bcd60e51b8152600401808060200182810382526023815260200180615a426023913960400191505060405180910390fd5b6000614fe86103e8614fdc878963ffffffff61590416565b9063ffffffff61590416565b905060006150056103e8859003614fdc878a63ffffffff614a4216565b9050615022600182848161501557fe5b049063ffffffff61597016565b979650505050505050565b6060600282511015615086576040805162461bcd60e51b815260206004820152601960248201527f424c43524c6962726172793a20494e56414c49445f5041544800000000000000604482015290519081900360640190fd5b815167ffffffffffffffff8111801561509e57600080fd5b506040519080825280602002602001820160405280156150c8578160200160208202803683370190505b50905082816000815181106150d957fe5b60200260200101818152505060005b60018351038110156143955760008061511e8786858151811061510757fe5b60200260200101518786600101815181106142a057fe5b91509150600061514b8887868151811061513457fe5b60200260200101518887600101815181106142da57fe5b6001600160a01b03166241c9f76040518163ffffffff1660e01b815260040160206040518083038186803b15801561518257600080fd5b505afa158015615196573d6000803e3d6000fd5b505050506040513d60208110156151ac57600080fd5b505185519091506151d3908690869081106151c357fe5b6020026020010151848484614e45565b8585600101815181106151e257fe5b60209081029190910101525050506001016150e8565b600080841161524e576040805162461bcd60e51b815260206004820181905260248201527f424c43524c6962726172793a20494e53554646494349454e545f414d4f554e54604482015290519081900360640190fd5b60008311801561525e5750600082115b6152995760405162461bcd60e51b8152600401808060200182810382526023815260200180615a426023913960400191505060405180910390fd5b826152aa858463ffffffff61590416565b816152b157fe5b04949350505050565b600080826001600160a01b0316846001600160a01b03161415615324576040805162461bcd60e51b815260206004820181905260248201527f424c43524c6962726172793a204944454e544943414c5f414444524553534553604482015290519081900360640190fd5b826001600160a01b0316846001600160a01b031610615344578284615347565b83835b90925090506001600160a01b0382166153a7576040805162461bcd60e51b815260206004820152601960248201527f424c43524c6962726172793a205a45524f5f4144445245535300000000000000604482015290519081900360640190fd5b9250929050565b6040805163e6a4390560e01b81526001600160a01b03888116600483015287811660248301529151600092839283927f00000000000000000000000000000000000000000000000000000000000000009092169163e6a4390591604480820192602092909190829003018186803b15801561542857600080fd5b505afa15801561543c573d6000803e3d6000fd5b505050506040513d602081101561545257600080fd5b50516001600160a01b0316141561551e57604080517fc9c653960000000000000000000000000000000000000000000000000000000081526001600160a01b038a81166004830152898116602483015291517f00000000000000000000000000000000000000000000000000000000000000009092169163c9c65396916044808201926020929091908290030181600087803b1580156154f157600080fd5b505af1158015615505573d6000803e3d6000fd5b505050506040513d602081101561551b57600080fd5b50505b60008061554c7f00000000000000000000000000000000000000000000000000000000000000008b8b61563b565b9150915081600014801561555e575080155b1561556e5787935086925061562e565b600061557b8984846151f8565b90508781116155ce57858110156155c35760405162461bcd60e51b8152600401808060200182810382526023815260200180615a1f6023913960400191505060405180910390fd5b88945092508261562c565b60006155db8984866151f8565b9050898111156155e757fe5b878110156156265760405162461bcd60e51b8152600401808060200182810382526023815260200180615bd36023913960400191505060405180910390fd5b94508793505b505b5050965096945050505050565b600080600061564a85856152ba565b50905060008061565b88888861439d565b6001600160a01b0316630902f1ac6040518163ffffffff1660e01b815260040160606040518083038186803b15801561569357600080fd5b505afa1580156156a7573d6000803e3d6000fd5b505050506040513d60608110156156bd57600080fd5b5080516020909101516dffffffffffffffffffffffffffff91821693501690506001600160a01b03878116908416146156f75780826156fa565b81815b90999098509650505050505050565b6000898989898989898989604051602001808a815260200189805190602001908083835b6020831061574c5780518252601f19909201916020918201910161572d565b51815160209384036101000a60001901801990921691161790529201998a5250606097881b6bffffffffffffffffffffffff199081168a83015296881b871660348a015294871b86166048890152509190941b909216605c850152607084019290925260908084019190915260408051808503909201825260b090930190925281519101209c9b505050505050505050505050565b604080517f19457468657265756d205369676e6564204d6573736167653a0a333200000000602080830191909152603c8083019490945282518083039094018452605c909101909152815191012090565b600080600080845160411461584d57600093505050506113d3565b50505060208201516040830151606084015160001a601b81101561586f57601b015b8060ff16601b1415801561588757508060ff16601c14155b1561589857600093505050506113d3565b6040805160008152602080820180845289905260ff8416828401526060820186905260808201859052915160019260a0808401939192601f1981019281900390910190855afa1580156158ef573d6000803e3d6000fd5b5050604051601f190151979650505050505050565b600081158061591f5750508082028282828161591c57fe5b04145b6113d3576040805162461bcd60e51b815260206004820152601460248201527f64732d6d6174682d6d756c2d6f766572666c6f77000000000000000000000000604482015290519081900360640190fd5b808201828110156113d3576040805162461bcd60e51b815260206004820152601460248201527f64732d6d6174682d6164642d6f766572666c6f77000000000000000000000000604482015290519081900360640190fdfe424c4352526f7574657230323a204558434553534956455f494e5055545f414d4f554e54737761704578616374455448466f72546f6b656e73537570706f7274696e674665654f6e5472616e73666572546f6b656e73424c4352526f7574657230323a20494e53554646494349454e545f425f414d4f554e54424c43524c6962726172793a20494e53554646494349454e545f4c49515549444954595472616e7366657248656c7065723a3a7472616e7366657246726f6d3a207472616e7366657246726f6d206661696c65645472616e7366657248656c7065723a3a736166655472616e736665724554483a20455448207472616e73666572206661696c6564737761704578616374546f6b656e73466f72546f6b656e73537570706f7274696e674665654f6e5472616e73666572546f6b656e73424c4352526f7574657230323a20494e53554646494349454e545f4f55545055545f414d4f554e54424c43524c6962726172793a20494e53554646494349454e545f4f55545055545f414d4f554e545472616e7366657248656c7065723a3a736166655472616e736665723a207472616e73666572206661696c6564737761704578616374546f6b656e73466f72455448537570706f7274696e674665654f6e5472616e73666572546f6b656e73424c43524c6962726172793a20494e53554646494349454e545f494e5055545f414d4f554e54424c4352526f7574657230323a20494e53554646494349454e545f415f414d4f554e54a26469706673582212200f7dc5cda9286f4eeb27e77ab8029998aff575be2627a1398cb0cfe4abfbcf8064736f6c63430006060033",
  "linkReferences": {},
  "deployedLinkReferences": {}
}