{
  "_format": "hh-sol-artifact-1",
  "contractName": "BLCROperator",
  "sourceName": "contracts/BLCROperator.sol",
  "abi": [
    {
      "inputs": [
        {
          "internalType": "address",
          "name": "_operatorWalletTokens",
          "type": "address"
        },
        {
          "internalType": "address",
          "name": "_operatorWalletNFTs",
          "type": "address"
        }
      ],
      "stateMutability": "nonpayable",
      "type": "constructor"
    },
    {
      "anonymous": false,
      "inputs": [
        {
          "indexed": false,
          "internalType": "address",
          "name": "depositContract",
          "type": "address"
        },
        {
          "indexed": true,
          "internalType": "address",
          "name": "from",
          "type": "address"
        },
        {
          "indexed": false,
          "internalType": "uint256",
          "name": "tokenId",
          "type": "uint256"
        }
      ],
      "name": "DepositNFT",
      "type": "event"
    },
    {
      "anonymous": false,
      "inputs": [
        {
          "indexed": false,
          "internalType": "address",
          "name": "depositContract",
          "type": "address"
        },
        {
          "indexed": true,
          "internalType": "address",
          "name": "from",
          "type": "address"
        },
        {
          "indexed": false,
          "internalType": "uint256",
          "name": "value",
          "type": "uint256"
        }
      ],
      "name": "DepositToken",
      "type": "event"
    },
    {
      "anonymous": false,
      "inputs": [
        {
          "indexed": false,
          "internalType": "address",
          "name": "account",
          "type": "address"
        }
      ],
      "name": "Paused",
      "type": "event"
    },
    {
      "anonymous": false,
      "inputs": [
        {
          "indexed": true,
          "internalType": "bytes32",
          "name": "role",
          "type": "bytes32"
        },
        {
          "indexed": true,
          "internalType": "bytes32",
          "name": "previousAdminRole",
          "type": "bytes32"
        },
        {
          "indexed": true,
          "internalType": "bytes32",
          "name": "newAdminRole",
          "type": "bytes32"
        }
      ],
      "name": "RoleAdminChanged",
      "type": "event"
    },
    {
      "anonymous": false,
      "inputs": [
        {
          "indexed": true,
          "internalType": "bytes32",
          "name": "role",
          "type": "bytes32"
        },
        {
          "indexed": true,
          "internalType": "address",
          "name": "account",
          "type": "address"
        },
        {
          "indexed": true,
          "internalType": "address",
          "name": "sender",
          "type": "address"
        }
      ],
      "name": "RoleGranted",
      "type": "event"
    },
    {
      "anonymous": false,
      "inputs": [
        {
          "indexed": true,
          "internalType": "bytes32",
          "name": "role",
          "type": "bytes32"
        },
        {
          "indexed": true,
          "internalType": "address",
          "name": "account",
          "type": "address"
        },
        {
          "indexed": true,
          "internalType": "address",
          "name": "sender",
          "type": "address"
        }
      ],
      "name": "RoleRevoked",
      "type": "event"
    },
    {
      "anonymous": false,
      "inputs": [
        {
          "indexed": false,
          "internalType": "address",
          "name": "account",
          "type": "address"
        }
      ],
      "name": "Unpaused",
      "type": "event"
    },
    {
      "inputs": [],
      "name": "DEFAULT_ADMIN_ROLE",
      "outputs": [
        {
          "internalType": "bytes32",
          "name": "",
          "type": "bytes32"
        }
      ],
      "stateMutability": "view",
      "type": "function"
    },
    {
      "inputs": [
        {
          "internalType": "address",
          "name": "_nft",
          "type": "address"
        },
        {
          "internalType": "uint256",
          "name": "_tokenId",
          "type": "uint256"
        }
      ],
      "name": "depositNFT",
      "outputs": [],
      "stateMutability": "nonpayable",
      "type": "function"
    },
    {
      "inputs": [
        {
          "internalType": "address",
          "name": "_token",
          "type": "address"
        },
        {
          "internalType": "uint256",
          "name": "_amount",
          "type": "uint256"
        }
      ],
      "name": "depositToken",
      "outputs": [],
      "stateMutability": "payable",
      "type": "function"
    },
    {
      "inputs": [
        {
          "internalType": "bytes32",
          "name": "role",
          "type": "bytes32"
        }
      ],
      "name": "getRoleAdmin",
      "outputs": [
        {
          "internalType": "bytes32",
          "name": "",
          "type": "bytes32"
        }
      ],
      "stateMutability": "view",
      "type": "function"
    },
    {
      "inputs": [
        {
          "internalType": "bytes32",
          "name": "role",
          "type": "bytes32"
        },
        {
          "internalType": "uint256",
          "name": "index",
          "type": "uint256"
        }
      ],
      "name": "getRoleMember",
      "outputs": [
        {
          "internalType": "address",
          "name": "",
          "type": "address"
        }
      ],
      "stateMutability": "view",
      "type": "function"
    },
    {
      "inputs": [
        {
          "internalType": "bytes32",
          "name": "role",
          "type": "bytes32"
        }
      ],
      "name": "getRoleMemberCount",
      "outputs": [
        {
          "internalType": "uint256",
          "name": "",
          "type": "uint256"
        }
      ],
      "stateMutability": "view",
      "type": "function"
    },
    {
      "inputs": [
        {
          "internalType": "bytes32",
          "name": "role",
          "type": "bytes32"
        },
        {
          "internalType": "address",
          "name": "account",
          "type": "address"
        }
      ],
      "name": "grantRole",
      "outputs": [],
      "stateMutability": "nonpayable",
      "type": "function"
    },
    {
      "inputs": [
        {
          "internalType": "bytes32",
          "name": "role",
          "type": "bytes32"
        },
        {
          "internalType": "address",
          "name": "account",
          "type": "address"
        }
      ],
      "name": "hasRole",
      "outputs": [
        {
          "internalType": "bool",
          "name": "",
          "type": "bool"
        }
      ],
      "stateMutability": "view",
      "type": "function"
    },
    {
      "inputs": [
        {
          "internalType": "address",
          "name": "_address",
          "type": "address"
        }
      ],
      "name": "isOperatorWalletNFTs",
      "outputs": [
        {
          "internalType": "bool",
          "name": "",
          "type": "bool"
        }
      ],
      "stateMutability": "view",
      "type": "function"
    },
    {
      "inputs": [
        {
          "internalType": "address",
          "name": "_address",
          "type": "address"
        }
      ],
      "name": "isOperatorWalletTokens",
      "outputs": [
        {
          "internalType": "bool",
          "name": "",
          "type": "bool"
        }
      ],
      "stateMutability": "view",
      "type": "function"
    },
    {
      "inputs": [],
      "name": "pause",
      "outputs": [],
      "stateMutability": "nonpayable",
      "type": "function"
    },
    {
      "inputs": [],
      "name": "paused",
      "outputs": [
        {
          "internalType": "bool",
          "name": "",
          "type": "bool"
        }
      ],
      "stateMutability": "view",
      "type": "function"
    },
    {
      "inputs": [
        {
          "internalType": "bytes32",
          "name": "role",
          "type": "bytes32"
        },
        {
          "internalType": "address",
          "name": "account",
          "type": "address"
        }
      ],
      "name": "renounceRole",
      "outputs": [],
      "stateMutability": "nonpayable",
      "type": "function"
    },
    {
      "inputs": [
        {
          "internalType": "bytes32",
          "name": "role",
          "type": "bytes32"
        },
        {
          "internalType": "address",
          "name": "account",
          "type": "address"
        }
      ],
      "name": "revokeRole",
      "outputs": [],
      "stateMutability": "nonpayable",
      "type": "function"
    },
    {
      "inputs": [
        {
          "internalType": "address",
          "name": "_operatorWalletNFTs",
          "type": "address"
        }
      ],
      "name": "setOperatorWalletNFTs",
      "outputs": [],
      "stateMutability": "nonpayable",
      "type": "function"
    },
    {
      "inputs": [
        {
          "internalType": "address",
          "name": "_operatorWalletTokens",
          "type": "address"
        }
      ],
      "name": "setOperatorWalletTokens",
      "outputs": [],
      "stateMutability": "nonpayable",
      "type": "function"
    },
    {
      "inputs": [
        {
          "internalType": "address",
          "name": "_nft",
          "type": "address"
        },
        {
          "internalType": "bool",
          "name": "_status",
          "type": "bool"
        }
      ],
      "name": "setSupportNfts",
      "outputs": [],
      "stateMutability": "nonpayable",
      "type": "function"
    },
    {
      "inputs": [
        {
          "internalType": "address",
          "name": "_token",
          "type": "address"
        },
        {
          "internalType": "bool",
          "name": "_status",
          "type": "bool"
        }
      ],
      "name": "setSupportTokens",
      "outputs": [],
      "stateMutability": "nonpayable",
      "type": "function"
    },
    {
      "inputs": [
        {
          "internalType": "address",
          "name": "",
          "type": "address"
        }
      ],
      "name": "supportNfts",
      "outputs": [
        {
          "internalType": "bool",
          "name": "",
          "type": "bool"
        }
      ],
      "stateMutability": "view",
      "type": "function"
    },
    {
      "inputs": [
        {
          "internalType": "address",
          "name": "",
          "type": "address"
        }
      ],
      "name": "supportTokens",
      "outputs": [
        {
          "internalType": "bool",
          "name": "",
          "type": "bool"
        }
      ],
      "stateMutability": "view",
      "type": "function"
    },
    {
      "inputs": [
        {
          "internalType": "bytes4",
          "name": "interfaceId",
          "type": "bytes4"
        }
      ],
      "name": "supportsInterface",
      "outputs": [
        {
          "internalType": "bool",
          "name": "",
          "type": "bool"
        }
      ],
      "stateMutability": "view",
      "type": "function"
    },
    {
      "inputs": [],
      "name": "unpause",
      "outputs": [],
      "stateMutability": "nonpayable",
      "type": "function"
    },
    {
      "inputs": [
        {
          "internalType": "address",
          "name": "_token",
          "type": "address"
        }
      ],
      "name": "withdrawAllTokensStuck",
      "outputs": [],
      "stateMutability": "payable",
      "type": "function"
    },
    {
      "inputs": [
        {
          "internalType": "address",
          "name": "_token",
          "type": "address"
        },
        {
          "internalType": "uint256",
          "name": "_amount",
          "type": "uint256"
        }
      ],
      "name": "withdrawTokensStuck",
      "outputs": [],
      "stateMutability": "payable",
      "type": "function"
    }
  ],
  "bytecode": "0x60806040523480156200001157600080fd5b5060405162003ae838038062003ae8833981810160405281019062000037919062000493565b6000600260006101000a81548160ff021916908315150217905550600073ffffffffffffffffffffffffffffffffffffffff168273ffffffffffffffffffffffffffffffffffffffff161415620000c5576040517f08c379a0000000000000000000000000000000000000000000000000000000008152600401620000bc9062000522565b60405180910390fd5b600073ffffffffffffffffffffffffffffffffffffffff168173ffffffffffffffffffffffffffffffffffffffff16141562000138576040517f08c379a00000000000000000000000000000000000000000000000000000000081526004016200012f9062000544565b60405180910390fd5b6200015c6000801b62000150620001e660201b60201c565b620001ee60201b60201c565b81600560006101000a81548173ffffffffffffffffffffffffffffffffffffffff021916908373ffffffffffffffffffffffffffffffffffffffff16021790555080600660006101000a81548173ffffffffffffffffffffffffffffffffffffffff021916908373ffffffffffffffffffffffffffffffffffffffff160217905550505062000663565b600033905090565b6200020082826200020460201b60201c565b5050565b6200021b82826200024c60201b620015d51760201c565b6200024781600160008581526020019081526020016000206200033d60201b620016b51790919060201c565b505050565b6200025e82826200037560201b60201c565b6200033957600160008084815260200190815260200160002060000160008373ffffffffffffffffffffffffffffffffffffffff1673ffffffffffffffffffffffffffffffffffffffff16815260200190815260200160002060006101000a81548160ff021916908315150217905550620002de620001e660201b60201c565b73ffffffffffffffffffffffffffffffffffffffff168173ffffffffffffffffffffffffffffffffffffffff16837f2f8788117e7eff1d82e926ec794901d17c78024a50270940304540a733656f0d60405160405180910390a45b5050565b60006200036d836000018373ffffffffffffffffffffffffffffffffffffffff1660001b620003df60201b60201c565b905092915050565b600080600084815260200190815260200160002060000160008373ffffffffffffffffffffffffffffffffffffffff1673ffffffffffffffffffffffffffffffffffffffff16815260200190815260200160002060009054906101000a900460ff16905092915050565b6000620003f383836200045960201b60201c565b6200044e57826000018290806001815401808255809150506001900390600052602060002001600090919091909150558260000180549050836001016000848152602001908152602001600020819055506001905062000453565b600090505b92915050565b600080836001016000848152602001908152602001600020541415905092915050565b6000815190506200048d8162000649565b92915050565b60008060408385031215620004a757600080fd5b6000620004b7858286016200047c565b9250506020620004ca858286016200047c565b9150509250929050565b6000620004e3603f8362000566565b9150620004f082620005ab565b604082019050919050565b60006200050a603d8362000566565b91506200051782620005fa565b604082019050919050565b600060208201905081810360008301526200053d81620004d4565b9050919050565b600060208201905081810360008301526200055f81620004fb565b9050919050565b600082825260208201905092915050565b600062000584826200058b565b9050919050565b600073ffffffffffffffffffffffffffffffffffffffff82169050919050565b7f424c43524f70657261746f723a205f6f70657261746f7257616c6c6574546f6b60008201527f656e73206d75737420646966666572656e74207a65726f2d6164647265737300602082015250565b7f424c43524f70657261746f723a205f6f70657261746f7257616c6c65744e465460008201527f73206d75737420646966666572656e74207a65726f2d61646472657373000000602082015250565b620006548162000577565b81146200066057600080fd5b50565b61347580620006736000396000f3fe60806040526004361061014b5760003560e01c806366b289cd116100b65780639b5b9b181161006f5780639b5b9b1814610482578063a217fddf146104ab578063bd1a0b14146104d6578063ca15c87314610513578063d547741f14610550578063d5715824146105795761014b565b806366b289cd1461034e5780638456cb591461038b5780638a0737a0146103a25780639010d07c146103df57806391d148541461041c578063998f50e4146104595761014b565b80632f2ff15d116101085780632f2ff15d14610275578063338b5dea1461029e57806336568abe146102ba5780633f4ba83a146102e35780634c5393f0146102fa5780635c975abb146103235761014b565b806301ffc9a714610150578063173d13501461018d578063248a9ca3146101b657806327af4d2a146101f35780632da97a68146102305780632f02c53f1461024c575b600080fd5b34801561015c57600080fd5b50610177600480360381019061017291906126c0565b610595565b6040516101849190612b08565b60405180910390f35b34801561019957600080fd5b506101b460048036038101906101af919061252c565b61060f565b005b3480156101c257600080fd5b506101dd60048036038101906101d8919061261f565b610716565b6040516101ea9190612b23565b60405180910390f35b3480156101ff57600080fd5b5061021a6004803603810190610215919061252c565b610735565b6040516102279190612b08565b60405180910390f35b61024a6004803603810190610245919061252c565b6107f0565b005b34801561025857600080fd5b50610273600480360381019061026e919061252c565b610989565b005b34801561028157600080fd5b5061029c60048036038101906102979190612648565b610a90565b005b6102b860048036038101906102b391906125ba565b610ab1565b005b3480156102c657600080fd5b506102e160048036038101906102dc9190612648565b610daf565b005b3480156102ef57600080fd5b506102f8610e32565b005b34801561030657600080fd5b50610321600480360381019061031c919061257e565b610e8f565b005b34801561032f57600080fd5b50610338610f3d565b6040516103459190612b08565b60405180910390f35b34801561035a57600080fd5b506103756004803603810190610370919061252c565b610f54565b6040516103829190612b08565b60405180910390f35b34801561039757600080fd5b506103a061100f565b005b3480156103ae57600080fd5b506103c960048036038101906103c4919061252c565b61106c565b6040516103d69190612b08565b60405180910390f35b3480156103eb57600080fd5b5061040660048036038101906104019190612684565b61108c565b6040516104139190612a8d565b60405180910390f35b34801561042857600080fd5b50610443600480360381019061043e9190612648565b6110bb565b6040516104509190612b08565b60405180910390f35b34801561046557600080fd5b50610480600480360381019061047b919061257e565b611125565b005b34801561048e57600080fd5b506104a960048036038101906104a491906125ba565b6111d3565b005b3480156104b757600080fd5b506104c0611457565b6040516104cd9190612b23565b60405180910390f35b3480156104e257600080fd5b506104fd60048036038101906104f8919061252c565b61145e565b60405161050a9190612b08565b60405180910390f35b34801561051f57600080fd5b5061053a6004803603810190610535919061261f565b61147e565b6040516105479190612d40565b60405180910390f35b34801561055c57600080fd5b5061057760048036038101906105729190612648565b6114a2565b005b610593600480360381019061058e91906125ba565b6114c3565b005b60007f5a05180f000000000000000000000000000000000000000000000000000000007bffffffffffffffffffffffffffffffffffffffffffffffffffffffff1916827bffffffffffffffffffffffffffffffffffffffffffffffffffffffff191614806106085750610607826116e5565b5b9050919050565b6106236000801b61061e61175f565b6110bb565b610662576040517f08c379a000000000000000000000000000000000000000000000000000000000815260040161065990612be0565b60405180910390fd5b600073ffffffffffffffffffffffffffffffffffffffff168173ffffffffffffffffffffffffffffffffffffffff1614156106d2576040517f08c379a00000000000000000000000000000000000000000000000000000000081526004016106c990612c80565b60405180910390fd5b80600660006101000a81548173ffffffffffffffffffffffffffffffffffffffff021916908373ffffffffffffffffffffffffffffffffffffffff16021790555050565b6000806000838152602001908152602001600020600101549050919050565b600061074b6000801b61074661175f565b6110bb565b61078a576040517f08c379a000000000000000000000000000000000000000000000000000000000815260040161078190612be0565b60405180910390fd5b8173ffffffffffffffffffffffffffffffffffffffff16600660009054906101000a900473ffffffffffffffffffffffffffffffffffffffff1673ffffffffffffffffffffffffffffffffffffffff16146107e65760006107e9565b60015b9050919050565b6108046000801b6107ff61175f565b6110bb565b610843576040517f08c379a000000000000000000000000000000000000000000000000000000000815260040161083a90612be0565b60405180910390fd5b600073ffffffffffffffffffffffffffffffffffffffff168173ffffffffffffffffffffffffffffffffffffffff1614156108cb5761088061175f565b73ffffffffffffffffffffffffffffffffffffffff166108fc479081150290604051600060405180830381858888f193505050501580156108c5573d6000803e3d6000fd5b50610986565b6109856108d661175f565b8273ffffffffffffffffffffffffffffffffffffffff166370a08231306040518263ffffffff1660e01b815260040161090f9190612a8d565b60206040518083038186803b15801561092757600080fd5b505afa15801561093b573d6000803e3d6000fd5b505050506040513d601f19601f8201168201806040525081019061095f91906126e9565b8373ffffffffffffffffffffffffffffffffffffffff166117679092919063ffffffff16565b5b50565b61099d6000801b61099861175f565b6110bb565b6109dc576040517f08c379a00000000000000000000000000000000000000000000000000000000081526004016109d390612be0565b60405180910390fd5b600073ffffffffffffffffffffffffffffffffffffffff168173ffffffffffffffffffffffffffffffffffffffff161415610a4c576040517f08c379a0000000000000000000000000000000000000000000000000000000008152600401610a4390612bc0565b60405180910390fd5b80600560006101000a81548173ffffffffffffffffffffffffffffffffffffffff021916908373ffffffffffffffffffffffffffffffffffffffff16021790555050565b610a9982610716565b610aa2816117ed565b610aac8383611801565b505050565b610ab9611835565b600360008373ffffffffffffffffffffffffffffffffffffffff1673ffffffffffffffffffffffffffffffffffffffff16815260200190815260200160002060009054906101000a900460ff16610b45576040517f08c379a0000000000000000000000000000000000000000000000000000000008152600401610b3c90612b80565b60405180910390fd5b600073ffffffffffffffffffffffffffffffffffffffff168273ffffffffffffffffffffffffffffffffffffffff161415610c2b5780341015610bbd576040517f08c379a0000000000000000000000000000000000000000000000000000000008152600401610bb490612ca0565b60405180910390fd5b600560009054906101000a900473ffffffffffffffffffffffffffffffffffffffff1673ffffffffffffffffffffffffffffffffffffffff166108fc829081150290604051600060405180830381858888f19350505050158015610c25573d6000803e3d6000fd5b50610d54565b808273ffffffffffffffffffffffffffffffffffffffff166370a08231610c5061175f565b6040518263ffffffff1660e01b8152600401610c6c9190612a8d565b60206040518083038186803b158015610c8457600080fd5b505afa158015610c98573d6000803e3d6000fd5b505050506040513d601f19601f82011682018060405250810190610cbc91906126e9565b1015610cfd576040517f08c379a0000000000000000000000000000000000000000000000000000000008152600401610cf490612c20565b60405180910390fd5b610d53610d0861175f565b600560009054906101000a900473ffffffffffffffffffffffffffffffffffffffff16838573ffffffffffffffffffffffffffffffffffffffff1661187f909392919063ffffffff16565b5b610d5c61175f565b73ffffffffffffffffffffffffffffffffffffffff167f4b3f81827ede20c81afbf1bb77b954afcdcae24d391d99042310cb1d9210dd578383604051610da3929190612adf565b60405180910390a25050565b610db761175f565b73ffffffffffffffffffffffffffffffffffffffff168173ffffffffffffffffffffffffffffffffffffffff1614610e24576040517f08c379a0000000000000000000000000000000000000000000000000000000008152600401610e1b90612d20565b60405180910390fd5b610e2e8282611908565b5050565b610e466000801b610e4161175f565b6110bb565b610e85576040517f08c379a0000000000000000000000000000000000000000000000000000000008152600401610e7c90612be0565b60405180910390fd5b610e8d61193c565b565b610ea36000801b610e9e61175f565b6110bb565b610ee2576040517f08c379a0000000000000000000000000000000000000000000000000000000008152600401610ed990612be0565b60405180910390fd5b80600460008473ffffffffffffffffffffffffffffffffffffffff1673ffffffffffffffffffffffffffffffffffffffff16815260200190815260200160002060006101000a81548160ff0219169083151502179055505050565b6000600260009054906101000a900460ff16905090565b6000610f6a6000801b610f6561175f565b6110bb565b610fa9576040517f08c379a0000000000000000000000000000000000000000000000000000000008152600401610fa090612be0565b60405180910390fd5b8173ffffffffffffffffffffffffffffffffffffffff16600560009054906101000a900473ffffffffffffffffffffffffffffffffffffffff1673ffffffffffffffffffffffffffffffffffffffff1614611005576000611008565b60015b9050919050565b6110236000801b61101e61175f565b6110bb565b611062576040517f08c379a000000000000000000000000000000000000000000000000000000000815260040161105990612be0565b60405180910390fd5b61106a61199f565b565b60036020528060005260406000206000915054906101000a900460ff1681565b60006110b38260016000868152602001908152602001600020611a0290919063ffffffff16565b905092915050565b600080600084815260200190815260200160002060000160008373ffffffffffffffffffffffffffffffffffffffff1673ffffffffffffffffffffffffffffffffffffffff16815260200190815260200160002060009054906101000a900460ff16905092915050565b6111396000801b61113461175f565b6110bb565b611178576040517f08c379a000000000000000000000000000000000000000000000000000000000815260040161116f90612be0565b60405180910390fd5b80600360008473ffffffffffffffffffffffffffffffffffffffff1673ffffffffffffffffffffffffffffffffffffffff16815260200190815260200160002060006101000a81548160ff0219169083151502179055505050565b6111db611835565b600460008373ffffffffffffffffffffffffffffffffffffffff1673ffffffffffffffffffffffffffffffffffffffff16815260200190815260200160002060009054906101000a900460ff16611267576040517f08c379a000000000000000000000000000000000000000000000000000000000815260040161125e90612ce0565b60405180910390fd5b61126f61175f565b73ffffffffffffffffffffffffffffffffffffffff168273ffffffffffffffffffffffffffffffffffffffff16636352211e836040518263ffffffff1660e01b81526004016112be9190612d40565b60206040518083038186803b1580156112d657600080fd5b505afa1580156112ea573d6000803e3d6000fd5b505050506040513d601f19601f8201168201806040525081019061130e9190612555565b73ffffffffffffffffffffffffffffffffffffffff1614611364576040517f08c379a000000000000000000000000000000000000000000000000000000000815260040161135b90612c60565b60405180910390fd5b8173ffffffffffffffffffffffffffffffffffffffff166342842e0e61138861175f565b600660009054906101000a900473ffffffffffffffffffffffffffffffffffffffff16846040518463ffffffff1660e01b81526004016113ca93929190612aa8565b600060405180830381600087803b1580156113e457600080fd5b505af11580156113f8573d6000803e3d6000fd5b5050505061140461175f565b73ffffffffffffffffffffffffffffffffffffffff167fc7e8b1bdbecdc8a549557efb2a2ab715cff51630caead31610000019e61dfa4b838360405161144b929190612adf565b60405180910390a25050565b6000801b81565b60046020528060005260406000206000915054906101000a900460ff1681565b600061149b60016000848152602001908152602001600020611a1c565b9050919050565b6114ab82610716565b6114b4816117ed565b6114be8383611908565b505050565b6114d76000801b6114d261175f565b6110bb565b611516576040517f08c379a000000000000000000000000000000000000000000000000000000000815260040161150d90612be0565b60405180910390fd5b600073ffffffffffffffffffffffffffffffffffffffff168273ffffffffffffffffffffffffffffffffffffffff16141561159e5761155361175f565b73ffffffffffffffffffffffffffffffffffffffff166108fc829081150290604051600060405180830381858888f19350505050158015611598573d6000803e3d6000fd5b506115d1565b6115d06115a961175f565b828473ffffffffffffffffffffffffffffffffffffffff166117679092919063ffffffff16565b5b5050565b6115df82826110bb565b6116b157600160008084815260200190815260200160002060000160008373ffffffffffffffffffffffffffffffffffffffff1673ffffffffffffffffffffffffffffffffffffffff16815260200190815260200160002060006101000a81548160ff02191690831515021790555061165661175f565b73ffffffffffffffffffffffffffffffffffffffff168173ffffffffffffffffffffffffffffffffffffffff16837f2f8788117e7eff1d82e926ec794901d17c78024a50270940304540a733656f0d60405160405180910390a45b5050565b60006116dd836000018373ffffffffffffffffffffffffffffffffffffffff1660001b611a31565b905092915050565b60007f7965db0b000000000000000000000000000000000000000000000000000000007bffffffffffffffffffffffffffffffffffffffffffffffffffffffff1916827bffffffffffffffffffffffffffffffffffffffffffffffffffffffff19161480611758575061175782611aa1565b5b9050919050565b600033905090565b6117e88363a9059cbb60e01b8484604051602401611786929190612adf565b604051602081830303815290604052907bffffffffffffffffffffffffffffffffffffffffffffffffffffffff19166020820180517bffffffffffffffffffffffffffffffffffffffffffffffffffffffff8381831617835250505050611b0b565b505050565b6117fe816117f961175f565b611bd2565b50565b61180b82826115d5565b61183081600160008581526020019081526020016000206116b590919063ffffffff16565b505050565b61183d610f3d565b1561187d576040517f08c379a000000000000000000000000000000000000000000000000000000000815260040161187490612c40565b60405180910390fd5b565b611902846323b872dd60e01b8585856040516024016118a093929190612aa8565b604051602081830303815290604052907bffffffffffffffffffffffffffffffffffffffffffffffffffffffff19166020820180517bffffffffffffffffffffffffffffffffffffffffffffffffffffffff8381831617835250505050611b0b565b50505050565b6119128282611c6f565b6119378160016000858152602001908152602001600020611d5090919063ffffffff16565b505050565b611944611d80565b6000600260006101000a81548160ff0219169083151502179055507f5db9ee0a495bf2e6ff9c91a7834c1ba4fdd244a5e8aa4e537bd38aeae4b073aa61198861175f565b6040516119959190612a8d565b60405180910390a1565b6119a7611835565b6001600260006101000a81548160ff0219169083151502179055507f62e78cea01bee320cd4e420270b5ea74000d11b0c9f74754ebdbfc544b05a2586119eb61175f565b6040516119f89190612a8d565b60405180910390a1565b6000611a118360000183611dc9565b60001c905092915050565b6000611a2a82600001611e1a565b9050919050565b6000611a3d8383611e2b565b611a96578260000182908060018154018082558091505060019003906000526020600020016000909190919091505582600001805490508360010160008481526020019081526020016000208190555060019050611a9b565b600090505b92915050565b60007f01ffc9a7000000000000000000000000000000000000000000000000000000007bffffffffffffffffffffffffffffffffffffffffffffffffffffffff1916827bffffffffffffffffffffffffffffffffffffffffffffffffffffffff1916149050919050565b6000611b6d826040518060400160405280602081526020017f5361666545524332303a206c6f772d6c6576656c2063616c6c206661696c65648152508573ffffffffffffffffffffffffffffffffffffffff16611e4e9092919063ffffffff16565b9050600081511115611bcd5780806020019051810190611b8d91906125f6565b611bcc576040517f08c379a0000000000000000000000000000000000000000000000000000000008152600401611bc390612d00565b60405180910390fd5b5b505050565b611bdc82826110bb565b611c6b57611c018173ffffffffffffffffffffffffffffffffffffffff166014611e66565b611c0f8360001c6020611e66565b604051602001611c20929190612a53565b6040516020818303038152906040526040517f08c379a0000000000000000000000000000000000000000000000000000000008152600401611c629190612b3e565b60405180910390fd5b5050565b611c7982826110bb565b15611d4c57600080600084815260200190815260200160002060000160008373ffffffffffffffffffffffffffffffffffffffff1673ffffffffffffffffffffffffffffffffffffffff16815260200190815260200160002060006101000a81548160ff021916908315150217905550611cf161175f565b73ffffffffffffffffffffffffffffffffffffffff168173ffffffffffffffffffffffffffffffffffffffff16837ff6391f5c32d9c69d2a47ea670b442974b53935d1edc7fd64eb21e047a839171b60405160405180910390a45b5050565b6000611d78836000018373ffffffffffffffffffffffffffffffffffffffff1660001b612160565b905092915050565b611d88610f3d565b611dc7576040517f08c379a0000000000000000000000000000000000000000000000000000000008152600401611dbe90612ba0565b60405180910390fd5b565b6000826000018281548110611e07577f4e487b7100000000000000000000000000000000000000000000000000000000600052603260045260246000fd5b9060005260206000200154905092915050565b600081600001805490509050919050565b600080836001016000848152602001908152602001600020541415905092915050565b6060611e5d84846000856122e6565b90509392505050565b606060006002836002611e799190612dee565b611e839190612d98565b67ffffffffffffffff811115611ec2577f4e487b7100000000000000000000000000000000000000000000000000000000600052604160045260246000fd5b6040519080825280601f01601f191660200182016040528015611ef45781602001600182028036833780820191505090505b5090507f300000000000000000000000000000000000000000000000000000000000000081600081518110611f52577f4e487b7100000000000000000000000000000000000000000000000000000000600052603260045260246000fd5b60200101907effffffffffffffffffffffffffffffffffffffffffffffffffffffffffffff1916908160001a9053507f780000000000000000000000000000000000000000000000000000000000000081600181518110611fdc577f4e487b7100000000000000000000000000000000000000000000000000000000600052603260045260246000fd5b60200101907effffffffffffffffffffffffffffffffffffffffffffffffffffffffffffff1916908160001a9053506000600184600261201c9190612dee565b6120269190612d98565b90505b6001811115612112577f3031323334353637383961626364656600000000000000000000000000000000600f86166010811061208e577f4e487b7100000000000000000000000000000000000000000000000000000000600052603260045260246000fd5b1a60f81b8282815181106120cb577f4e487b7100000000000000000000000000000000000000000000000000000000600052603260045260246000fd5b60200101907effffffffffffffffffffffffffffffffffffffffffffffffffffffffffffff1916908160001a905350600485901c94508061210b90612f2d565b9050612029565b5060008414612156576040517f08c379a000000000000000000000000000000000000000000000000000000000815260040161214d90612b60565b60405180910390fd5b8091505092915050565b600080836001016000848152602001908152602001600020549050600081146122da5760006001826121929190612e48565b90506000600186600001805490506121aa9190612e48565b90508181146122655760008660000182815481106121f1577f4e487b7100000000000000000000000000000000000000000000000000000000600052603260045260246000fd5b906000526020600020015490508087600001848154811061223b577f4e487b7100000000000000000000000000000000000000000000000000000000600052603260045260246000fd5b90600052602060002001819055508387600101600083815260200190815260200160002081905550505b8560000180548061229f577f4e487b7100000000000000000000000000000000000000000000000000000000600052603160045260246000fd5b6001900381819060005260206000200160009055905585600101600086815260200190815260200160002060009055600193505050506122e0565b60009150505b92915050565b60608247101561232b576040517f08c379a000000000000000000000000000000000000000000000000000000000815260040161232290612c00565b60405180910390fd5b612334856123fa565b612373576040517f08c379a000000000000000000000000000000000000000000000000000000000815260040161236a90612cc0565b60405180910390fd5b6000808673ffffffffffffffffffffffffffffffffffffffff16858760405161239c9190612a3c565b60006040518083038185875af1925050503d80600081146123d9576040519150601f19603f3d011682016040523d82523d6000602084013e6123de565b606091505b50915091506123ee82828661241d565b92505050949350505050565b6000808273ffffffffffffffffffffffffffffffffffffffff163b119050919050565b6060831561242d5782905061247d565b6000835111156124405782518084602001fd5b816040517f08c379a00000000000000000000000000000000000000000000000000000000081526004016124749190612b3e565b60405180910390fd5b9392505050565b600081359050612493816133cc565b92915050565b6000815190506124a8816133cc565b92915050565b6000813590506124bd816133e3565b92915050565b6000815190506124d2816133e3565b92915050565b6000813590506124e7816133fa565b92915050565b6000813590506124fc81613411565b92915050565b60008135905061251181613428565b92915050565b60008151905061252681613428565b92915050565b60006020828403121561253e57600080fd5b600061254c84828501612484565b91505092915050565b60006020828403121561256757600080fd5b600061257584828501612499565b91505092915050565b6000806040838503121561259157600080fd5b600061259f85828601612484565b92505060206125b0858286016124ae565b9150509250929050565b600080604083850312156125cd57600080fd5b60006125db85828601612484565b92505060206125ec85828601612502565b9150509250929050565b60006020828403121561260857600080fd5b6000612616848285016124c3565b91505092915050565b60006020828403121561263157600080fd5b600061263f848285016124d8565b91505092915050565b6000806040838503121561265b57600080fd5b6000612669858286016124d8565b925050602061267a85828601612484565b9150509250929050565b6000806040838503121561269757600080fd5b60006126a5858286016124d8565b92505060206126b685828601612502565b9150509250929050565b6000602082840312156126d257600080fd5b60006126e0848285016124ed565b91505092915050565b6000602082840312156126fb57600080fd5b600061270984828501612517565b91505092915050565b61271b81612e7c565b82525050565b61272a81612e8e565b82525050565b61273981612e9a565b82525050565b600061274a82612d5b565b6127548185612d71565b9350612764818560208601612efa565b80840191505092915050565b600061277b82612d66565b6127858185612d7c565b9350612795818560208601612efa565b61279e81612f86565b840191505092915050565b60006127b482612d66565b6127be8185612d8d565b93506127ce818560208601612efa565b80840191505092915050565b60006127e7602083612d7c565b91506127f282612f97565b602082019050919050565b600061280a602283612d7c565b915061281582612fc0565b604082019050919050565b600061282d601483612d7c565b91506128388261300f565b602082019050919050565b6000612850603f83612d7c565b915061285b82613038565b604082019050919050565b6000612873602183612d7c565b915061287e82613087565b604082019050919050565b6000612896602683612d7c565b91506128a1826130d6565b604082019050919050565b60006128b9602b83612d7c565b91506128c482613125565b604082019050919050565b60006128dc601083612d7c565b91506128e782613174565b602082019050919050565b60006128ff602983612d7c565b915061290a8261319d565b604082019050919050565b6000612922603d83612d7c565b915061292d826131ec565b604082019050919050565b6000612945602983612d7c565b91506129508261323b565b604082019050919050565b6000612968601d83612d7c565b91506129738261328a565b602082019050919050565b600061298b601783612d8d565b9150612996826132b3565b601782019050919050565b60006129ae601d83612d7c565b91506129b9826132dc565b602082019050919050565b60006129d1602a83612d7c565b91506129dc82613305565b604082019050919050565b60006129f4601183612d8d565b91506129ff82613354565b601182019050919050565b6000612a17602f83612d7c565b9150612a228261337d565b604082019050919050565b612a3681612ef0565b82525050565b6000612a48828461273f565b915081905092915050565b6000612a5e8261297e565b9150612a6a82856127a9565b9150612a75826129e7565b9150612a8182846127a9565b91508190509392505050565b6000602082019050612aa26000830184612712565b92915050565b6000606082019050612abd6000830186612712565b612aca6020830185612712565b612ad76040830184612a2d565b949350505050565b6000604082019050612af46000830185612712565b612b016020830184612a2d565b9392505050565b6000602082019050612b1d6000830184612721565b92915050565b6000602082019050612b386000830184612730565b92915050565b60006020820190508181036000830152612b588184612770565b905092915050565b60006020820190508181036000830152612b79816127da565b9050919050565b60006020820190508181036000830152612b99816127fd565b9050919050565b60006020820190508181036000830152612bb981612820565b9050919050565b60006020820190508181036000830152612bd981612843565b9050919050565b60006020820190508181036000830152612bf981612866565b9050919050565b60006020820190508181036000830152612c1981612889565b9050919050565b60006020820190508181036000830152612c39816128ac565b9050919050565b60006020820190508181036000830152612c59816128cf565b9050919050565b60006020820190508181036000830152612c79816128f2565b9050919050565b60006020820190508181036000830152612c9981612915565b9050919050565b60006020820190508181036000830152612cb981612938565b9050919050565b60006020820190508181036000830152612cd98161295b565b9050919050565b60006020820190508181036000830152612cf9816129a1565b9050919050565b60006020820190508181036000830152612d19816129c4565b9050919050565b60006020820190508181036000830152612d3981612a0a565b9050919050565b6000602082019050612d556000830184612a2d565b92915050565b600081519050919050565b600081519050919050565b600081905092915050565b600082825260208201905092915050565b600081905092915050565b6000612da382612ef0565b9150612dae83612ef0565b9250827fffffffffffffffffffffffffffffffffffffffffffffffffffffffffffffffff03821115612de357612de2612f57565b5b828201905092915050565b6000612df982612ef0565b9150612e0483612ef0565b9250817fffffffffffffffffffffffffffffffffffffffffffffffffffffffffffffffff0483118215151615612e3d57612e3c612f57565b5b828202905092915050565b6000612e5382612ef0565b9150612e5e83612ef0565b925082821015612e7157612e70612f57565b5b828203905092915050565b6000612e8782612ed0565b9050919050565b60008115159050919050565b6000819050919050565b60007fffffffff0000000000000000000000000000000000000000000000000000000082169050919050565b600073ffffffffffffffffffffffffffffffffffffffff82169050919050565b6000819050919050565b60005b83811015612f18578082015181840152602081019050612efd565b83811115612f27576000848401525b50505050565b6000612f3882612ef0565b91506000821415612f4c57612f4b612f57565b5b600182039050919050565b7f4e487b7100000000000000000000000000000000000000000000000000000000600052601160045260246000fd5b6000601f19601f8301169050919050565b7f537472696e67733a20686578206c656e67746820696e73756666696369656e74600082015250565b7f424c43524f70657261746f723a20746f6b656e206973206e6f7420737570706f60008201527f7274000000000000000000000000000000000000000000000000000000000000602082015250565b7f5061757361626c653a206e6f7420706175736564000000000000000000000000600082015250565b7f424c43524f70657261746f723a205f6f70657261746f7257616c6c6574546f6b60008201527f656e73206d75737420646966666572656e74207a65726f2d6164647265737300602082015250565b7f424c43524f70657261746f723a2063616c6c6572206973206e6f742061646d6960008201527f6e00000000000000000000000000000000000000000000000000000000000000602082015250565b7f416464726573733a20696e73756666696369656e742062616c616e636520666f60008201527f722063616c6c0000000000000000000000000000000000000000000000000000602082015250565b7f424c43524f70657261746f723a2062616c616e63654f6620746f6b656e20697360008201527f206e6f7420656e6f756768000000000000000000000000000000000000000000602082015250565b7f5061757361626c653a2070617573656400000000000000000000000000000000600082015250565b7f424c43524f70657261746f723a2073656e646572206973206e6f74206f776e6560008201527f7220746f6b656e49640000000000000000000000000000000000000000000000602082015250565b7f424c43524f70657261746f723a205f6f70657261746f7257616c6c65744e465460008201527f73206d75737420646966666572656e74207a65726f2d61646472657373000000602082015250565b7f424c43524f70657261746f723a206d73672e76616c7565206d7573742065717560008201527f616c20616d6f756e740000000000000000000000000000000000000000000000602082015250565b7f416464726573733a2063616c6c20746f206e6f6e2d636f6e7472616374000000600082015250565b7f416363657373436f6e74726f6c3a206163636f756e7420000000000000000000600082015250565b7f424c43524f70657261746f723a206e6674206e6f7420737570706f7274000000600082015250565b7f5361666545524332303a204552433230206f7065726174696f6e20646964206e60008201527f6f74207375636365656400000000000000000000000000000000000000000000602082015250565b7f206973206d697373696e6720726f6c6520000000000000000000000000000000600082015250565b7f416363657373436f6e74726f6c3a2063616e206f6e6c792072656e6f756e636560008201527f20726f6c657320666f722073656c660000000000000000000000000000000000602082015250565b6133d581612e7c565b81146133e057600080fd5b50565b6133ec81612e8e565b81146133f757600080fd5b50565b61340381612e9a565b811461340e57600080fd5b50565b61341a81612ea4565b811461342557600080fd5b50565b61343181612ef0565b811461343c57600080fd5b5056fea26469706673582212206d948752ef0d622ae312917e47b6cc990b39a65d13e92fe8e85469fe57ccaaea64736f6c63430008010033",
  "linkReferences": {},
  "deployedLinkReferences": {}
}